{
    "abi": [
        {
            "type": "constructor",
            "inputs": [
                {
                    "name": "_vid",
                    "type": "uint32",
                    "internalType": "uint32"
                },
                {
                    "name": "_messageLibs",
                    "type": "address[]",
                    "internalType": "address[]"
                },
                {
                    "name": "_priceFeed",
                    "type": "address",
                    "internalType": "address"
                },
                {
                    "name": "_signers",
                    "type": "address[]",
                    "internalType": "address[]"
                },
                {
                    "name": "_quorum",
                    "type": "uint64",
                    "internalType": "uint64"
                },
                {
                    "name": "_admins",
                    "type": "address[]",
                    "internalType": "address[]"
                }
            ],
            "stateMutability": "nonpayable"
        },
        {
            "type": "function",
            "name": "DEFAULT_ADMIN_ROLE",
            "inputs": [],
            "outputs": [
                {
                    "name": "",
                    "type": "bytes32",
                    "internalType": "bytes32"
                }
            ],
            "stateMutability": "view"
        },
        {
            "type": "function",
            "name": "allowlistSize",
            "inputs": [],
            "outputs": [
                {
                    "name": "",
                    "type": "uint64",
                    "internalType": "uint64"
                }
            ],
            "stateMutability": "view"
        },
        {
            "type": "function",
            "name": "assignJob",
            "inputs": [
                {
                    "name": "_param",
                    "type": "tuple",
                    "internalType": "struct ILayerZeroDVN.AssignJobParam",
                    "components": [
                        {
                            "name": "dstEid",
                            "type": "uint32",
                            "internalType": "uint32"
                        },
                        {
                            "name": "packetHeader",
                            "type": "bytes",
                            "internalType": "bytes"
                        },
                        {
                            "name": "payloadHash",
                            "type": "bytes32",
                            "internalType": "bytes32"
                        },
                        {
                            "name": "confirmations",
                            "type": "uint64",
                            "internalType": "uint64"
                        },
                        {
                            "name": "sender",
                            "type": "address",
                            "internalType": "address"
                        }
                    ]
                },
                {
                    "name": "_options",
                    "type": "bytes",
                    "internalType": "bytes"
                }
            ],
            "outputs": [
                {
                    "name": "totalFee",
                    "type": "uint256",
                    "internalType": "uint256"
                }
            ],
            "stateMutability": "payable"
        },
        {
            "type": "function",
            "name": "assignJob",
            "inputs": [
                {
                    "name": "_dstEid",
                    "type": "uint16",
                    "internalType": "uint16"
                },
                {
                    "name": "",
                    "type": "uint16",
                    "internalType": "uint16"
                },
                {
                    "name": "_confirmations",
                    "type": "uint64",
                    "internalType": "uint64"
                },
                {
                    "name": "_sender",
                    "type": "address",
                    "internalType": "address"
                }
            ],
            "outputs": [
                {
                    "name": "totalFee",
                    "type": "uint256",
                    "internalType": "uint256"
                }
            ],
            "stateMutability": "nonpayable"
        },
        {
            "type": "function",
            "name": "defaultMultiplierBps",
            "inputs": [],
            "outputs": [
                {
                    "name": "",
                    "type": "uint16",
                    "internalType": "uint16"
                }
            ],
            "stateMutability": "view"
        },
        {
            "type": "function",
            "name": "dstConfig",
            "inputs": [
                {
                    "name": "dstEid",
                    "type": "uint32",
                    "internalType": "uint32"
                }
            ],
            "outputs": [
                {
                    "name": "gas",
                    "type": "uint64",
                    "internalType": "uint64"
                },
                {
                    "name": "multiplierBps",
                    "type": "uint16",
                    "internalType": "uint16"
                },
                {
                    "name": "floorMarginUSD",
                    "type": "uint128",
                    "internalType": "uint128"
                }
            ],
            "stateMutability": "view"
        },
        {
            "type": "function",
            "name": "execute",
            "inputs": [
                {
                    "name": "_params",
                    "type": "tuple[]",
                    "internalType": "struct ExecuteParam[]",
                    "components": [
                        {
                            "name": "vid",
                            "type": "uint32",
                            "internalType": "uint32"
                        },
                        {
                            "name": "target",
                            "type": "address",
                            "internalType": "address"
                        },
                        {
                            "name": "callData",
                            "type": "bytes",
                            "internalType": "bytes"
                        },
                        {
                            "name": "expiration",
                            "type": "uint256",
                            "internalType": "uint256"
                        },
                        {
                            "name": "signatures",
                            "type": "bytes",
                            "internalType": "bytes"
                        }
                    ]
                }
            ],
            "outputs": [],
            "stateMutability": "nonpayable"
        },
        {
            "type": "function",
            "name": "getFee",
            "inputs": [
                {
                    "name": "_dstEid",
                    "type": "uint32",
                    "internalType": "uint32"
                },
                {
                    "name": "_confirmations",
                    "type": "uint64",
                    "internalType": "uint64"
                },
                {
                    "name": "_sender",
                    "type": "address",
                    "internalType": "address"
                },
                {
                    "name": "_options",
                    "type": "bytes",
                    "internalType": "bytes"
                }
            ],
            "outputs": [
                {
                    "name": "fee",
                    "type": "uint256",
                    "internalType": "uint256"
                }
            ],
            "stateMutability": "view"
        },
        {
            "type": "function",
            "name": "getFee",
            "inputs": [
                {
                    "name": "_dstEid",
                    "type": "uint16",
                    "internalType": "uint16"
                },
                {
                    "name": "",
                    "type": "uint16",
                    "internalType": "uint16"
                },
                {
                    "name": "_confirmations",
                    "type": "uint64",
                    "internalType": "uint64"
                },
                {
                    "name": "_sender",
                    "type": "address",
                    "internalType": "address"
                }
            ],
            "outputs": [
                {
                    "name": "fee",
                    "type": "uint256",
                    "internalType": "uint256"
                }
            ],
            "stateMutability": "view"
        },
        {
            "type": "function",
            "name": "getRoleAdmin",
            "inputs": [
                {
                    "name": "role",
                    "type": "bytes32",
                    "internalType": "bytes32"
                }
            ],
            "outputs": [
                {
                    "name": "",
                    "type": "bytes32",
                    "internalType": "bytes32"
                }
            ],
            "stateMutability": "view"
        },
        {
            "type": "function",
            "name": "getSupportedOptionTypes",
            "inputs": [
                {
                    "name": "_eid",
                    "type": "uint32",
                    "internalType": "uint32"
                }
            ],
            "outputs": [
                {
                    "name": "",
                    "type": "uint8[]",
                    "internalType": "uint8[]"
                }
            ],
            "stateMutability": "view"
        },
        {
            "type": "function",
            "name": "grantRole",
            "inputs": [
                {
                    "name": "_role",
                    "type": "bytes32",
                    "internalType": "bytes32"
                },
                {
                    "name": "_account",
                    "type": "address",
                    "internalType": "address"
                }
            ],
            "outputs": [],
            "stateMutability": "nonpayable"
        },
        {
            "type": "function",
            "name": "hasAcl",
            "inputs": [
                {
                    "name": "_sender",
                    "type": "address",
                    "internalType": "address"
                }
            ],
            "outputs": [
                {
                    "name": "",
                    "type": "bool",
                    "internalType": "bool"
                }
            ],
            "stateMutability": "view"
        },
        {
            "type": "function",
            "name": "hasRole",
            "inputs": [
                {
                    "name": "role",
                    "type": "bytes32",
                    "internalType": "bytes32"
                },
                {
                    "name": "account",
                    "type": "address",
                    "internalType": "address"
                }
            ],
            "outputs": [
                {
                    "name": "",
                    "type": "bool",
                    "internalType": "bool"
                }
            ],
            "stateMutability": "view"
        },
        {
            "type": "function",
            "name": "hashCallData",
            "inputs": [
                {
                    "name": "_vid",
                    "type": "uint32",
                    "internalType": "uint32"
                },
                {
                    "name": "_target",
                    "type": "address",
                    "internalType": "address"
                },
                {
                    "name": "_callData",
                    "type": "bytes",
                    "internalType": "bytes"
                },
                {
                    "name": "_expiration",
                    "type": "uint256",
                    "internalType": "uint256"
                }
            ],
            "outputs": [
                {
                    "name": "",
                    "type": "bytes32",
                    "internalType": "bytes32"
                }
            ],
            "stateMutability": "pure"
        },
        {
            "type": "function",
            "name": "paused",
            "inputs": [],
            "outputs": [
                {
                    "name": "",
                    "type": "bool",
                    "internalType": "bool"
                }
            ],
            "stateMutability": "view"
        },
        {
            "type": "function",
            "name": "priceFeed",
            "inputs": [],
            "outputs": [
                {
                    "name": "",
                    "type": "address",
                    "internalType": "address"
                }
            ],
            "stateMutability": "view"
        },
        {
            "type": "function",
            "name": "quorum",
            "inputs": [],
            "outputs": [
                {
                    "name": "",
                    "type": "uint64",
                    "internalType": "uint64"
                }
            ],
            "stateMutability": "view"
        },
        {
            "type": "function",
            "name": "quorumChangeAdmin",
            "inputs": [
                {
                    "name": "_param",
                    "type": "tuple",
                    "internalType": "struct ExecuteParam",
                    "components": [
                        {
                            "name": "vid",
                            "type": "uint32",
                            "internalType": "uint32"
                        },
                        {
                            "name": "target",
                            "type": "address",
                            "internalType": "address"
                        },
                        {
                            "name": "callData",
                            "type": "bytes",
                            "internalType": "bytes"
                        },
                        {
                            "name": "expiration",
                            "type": "uint256",
                            "internalType": "uint256"
                        },
                        {
                            "name": "signatures",
                            "type": "bytes",
                            "internalType": "bytes"
                        }
                    ]
                }
            ],
            "outputs": [],
            "stateMutability": "nonpayable"
        },
        {
            "type": "function",
            "name": "renounceRole",
            "inputs": [
                {
                    "name": "",
                    "type": "bytes32",
                    "internalType": "bytes32"
                },
                {
                    "name": "",
                    "type": "address",
                    "internalType": "address"
                }
            ],
            "outputs": [],
            "stateMutability": "pure"
        },
        {
            "type": "function",
            "name": "revokeRole",
            "inputs": [
                {
                    "name": "_role",
                    "type": "bytes32",
                    "internalType": "bytes32"
                },
                {
                    "name": "_account",
                    "type": "address",
                    "internalType": "address"
                }
            ],
            "outputs": [],
            "stateMutability": "nonpayable"
        },
        {
            "type": "function",
            "name": "setDefaultMultiplierBps",
            "inputs": [
                {
                    "name": "_multiplierBps",
                    "type": "uint16",
                    "internalType": "uint16"
                }
            ],
            "outputs": [],
            "stateMutability": "nonpayable"
        },
        {
            "type": "function",
            "name": "setDstConfig",
            "inputs": [
                {
                    "name": "_params",
                    "type": "tuple[]",
                    "internalType": "struct IDVN.DstConfigParam[]",
                    "components": [
                        {
                            "name": "dstEid",
                            "type": "uint32",
                            "internalType": "uint32"
                        },
                        {
                            "name": "gas",
                            "type": "uint64",
                            "internalType": "uint64"
                        },
                        {
                            "name": "multiplierBps",
                            "type": "uint16",
                            "internalType": "uint16"
                        },
                        {
                            "name": "floorMarginUSD",
                            "type": "uint128",
                            "internalType": "uint128"
                        }
                    ]
                }
            ],
            "outputs": [],
            "stateMutability": "nonpayable"
        },
        {
            "type": "function",
            "name": "setPaused",
            "inputs": [
                {
                    "name": "_paused",
                    "type": "bool",
                    "internalType": "bool"
                }
            ],
            "outputs": [],
            "stateMutability": "nonpayable"
        },
        {
            "type": "function",
            "name": "setPriceFeed",
            "inputs": [
                {
                    "name": "_priceFeed",
                    "type": "address",
                    "internalType": "address"
                }
            ],
            "outputs": [],
            "stateMutability": "nonpayable"
        },
        {
            "type": "function",
            "name": "setQuorum",
            "inputs": [
                {
                    "name": "_quorum",
                    "type": "uint64",
                    "internalType": "uint64"
                }
            ],
            "outputs": [],
            "stateMutability": "nonpayable"
        },
        {
            "type": "function",
            "name": "setSigner",
            "inputs": [
                {
                    "name": "_signer",
                    "type": "address",
                    "internalType": "address"
                },
                {
                    "name": "_active",
                    "type": "bool",
                    "internalType": "bool"
                }
            ],
            "outputs": [],
            "stateMutability": "nonpayable"
        },
        {
            "type": "function",
            "name": "setSupportedOptionTypes",
            "inputs": [
                {
                    "name": "_eid",
                    "type": "uint32",
                    "internalType": "uint32"
                },
                {
                    "name": "_optionTypes",
                    "type": "uint8[]",
                    "internalType": "uint8[]"
                }
            ],
            "outputs": [],
            "stateMutability": "nonpayable"
        },
        {
            "type": "function",
            "name": "setWorkerFeeLib",
            "inputs": [
                {
                    "name": "_workerFeeLib",
                    "type": "address",
                    "internalType": "address"
                }
            ],
            "outputs": [],
            "stateMutability": "nonpayable"
        },
        {
            "type": "function",
            "name": "signerSize",
            "inputs": [],
            "outputs": [
                {
                    "name": "",
                    "type": "uint64",
                    "internalType": "uint64"
                }
            ],
            "stateMutability": "view"
        },
        {
            "type": "function",
            "name": "signers",
            "inputs": [
                {
                    "name": "signer",
                    "type": "address",
                    "internalType": "address"
                }
            ],
            "outputs": [
                {
                    "name": "active",
                    "type": "bool",
                    "internalType": "bool"
                }
            ],
            "stateMutability": "view"
        },
        {
            "type": "function",
            "name": "supportsInterface",
            "inputs": [
                {
                    "name": "interfaceId",
                    "type": "bytes4",
                    "internalType": "bytes4"
                }
            ],
            "outputs": [
                {
                    "name": "",
                    "type": "bool",
                    "internalType": "bool"
                }
            ],
            "stateMutability": "view"
        },
        {
            "type": "function",
            "name": "usedHashes",
            "inputs": [
                {
                    "name": "executableHash",
                    "type": "bytes32",
                    "internalType": "bytes32"
                }
            ],
            "outputs": [
                {
                    "name": "used",
                    "type": "bool",
                    "internalType": "bool"
                }
            ],
            "stateMutability": "view"
        },
        {
            "type": "function",
            "name": "verify",
            "inputs": [
                {
                    "name": "_receiveLibRemote",
                    "type": "address",
                    "internalType": "address"
                },
                {
                    "name": "_packetHeader",
                    "type": "bytes",
                    "internalType": "bytes"
                },
                {
                    "name": "_payloadHash",
                    "type": "bytes32",
                    "internalType": "bytes32"
                },
                {
                    "name": "_confirmations",
                    "type": "uint64",
                    "internalType": "uint64"
                }
            ],
            "outputs": [],
            "stateMutability": "nonpayable"
        },
        {
            "type": "function",
            "name": "verifySignatures",
            "inputs": [
                {
                    "name": "_hash",
                    "type": "bytes32",
                    "internalType": "bytes32"
                },
                {
                    "name": "_signatures",
                    "type": "bytes",
                    "internalType": "bytes"
                }
            ],
            "outputs": [
                {
                    "name": "",
                    "type": "bool",
                    "internalType": "bool"
                },
                {
                    "name": "",
                    "type": "uint8",
                    "internalType": "enum MultiSig.Errors"
                }
            ],
            "stateMutability": "view"
        },
        {
            "type": "function",
            "name": "vid",
            "inputs": [],
            "outputs": [
                {
                    "name": "",
                    "type": "uint32",
                    "internalType": "uint32"
                }
            ],
            "stateMutability": "view"
        },
        {
            "type": "function",
            "name": "withdrawFee",
            "inputs": [
                {
                    "name": "_lib",
                    "type": "address",
                    "internalType": "address"
                },
                {
                    "name": "_to",
                    "type": "address",
                    "internalType": "address"
                },
                {
                    "name": "_amount",
                    "type": "uint256",
                    "internalType": "uint256"
                }
            ],
            "outputs": [],
            "stateMutability": "nonpayable"
        },
        {
            "type": "function",
            "name": "withdrawFeeFromUlnV2",
            "inputs": [
                {
                    "name": "_lib",
                    "type": "address",
                    "internalType": "address"
                },
                {
                    "name": "_to",
                    "type": "address",
                    "internalType": "address payable"
                },
                {
                    "name": "_amount",
                    "type": "uint256",
                    "internalType": "uint256"
                }
            ],
            "outputs": [],
            "stateMutability": "nonpayable"
        },
        {
            "type": "function",
            "name": "withdrawToken",
            "inputs": [
                {
                    "name": "_token",
                    "type": "address",
                    "internalType": "address"
                },
                {
                    "name": "_to",
                    "type": "address",
                    "internalType": "address"
                },
                {
                    "name": "_amount",
                    "type": "uint256",
                    "internalType": "uint256"
                }
            ],
            "outputs": [],
            "stateMutability": "nonpayable"
        },
        {
            "type": "function",
            "name": "workerFeeLib",
            "inputs": [],
            "outputs": [
                {
                    "name": "",
                    "type": "address",
                    "internalType": "address"
                }
            ],
            "stateMutability": "view"
        },
        {
            "type": "event",
            "name": "ExecuteFailed",
            "inputs": [
                {
                    "name": "_index",
                    "type": "uint256",
                    "indexed": false,
                    "internalType": "uint256"
                },
                {
                    "name": "_data",
                    "type": "bytes",
                    "indexed": false,
                    "internalType": "bytes"
                }
            ],
            "anonymous": false
        },
        {
            "type": "event",
            "name": "HashAlreadyUsed",
            "inputs": [
                {
                    "name": "param",
                    "type": "tuple",
                    "indexed": false,
                    "internalType": "struct ExecuteParam",
                    "components": [
                        {
                            "name": "vid",
                            "type": "uint32",
                            "internalType": "uint32"
                        },
                        {
                            "name": "target",
                            "type": "address",
                            "internalType": "address"
                        },
                        {
                            "name": "callData",
                            "type": "bytes",
                            "internalType": "bytes"
                        },
                        {
                            "name": "expiration",
                            "type": "uint256",
                            "internalType": "uint256"
                        },
                        {
                            "name": "signatures",
                            "type": "bytes",
                            "internalType": "bytes"
                        }
                    ]
                },
                {
                    "name": "_hash",
                    "type": "bytes32",
                    "indexed": false,
                    "internalType": "bytes32"
                }
            ],
            "anonymous": false
        },
        {
            "type": "event",
            "name": "Paused",
            "inputs": [
                {
                    "name": "account",
                    "type": "address",
                    "indexed": false,
                    "internalType": "address"
                }
            ],
            "anonymous": false
        },
        {
            "type": "event",
            "name": "RoleAdminChanged",
            "inputs": [
                {
                    "name": "role",
                    "type": "bytes32",
                    "indexed": true,
                    "internalType": "bytes32"
                },
                {
                    "name": "previousAdminRole",
                    "type": "bytes32",
                    "indexed": true,
                    "internalType": "bytes32"
                },
                {
                    "name": "newAdminRole",
                    "type": "bytes32",
                    "indexed": true,
                    "internalType": "bytes32"
                }
            ],
            "anonymous": false
        },
        {
            "type": "event",
            "name": "RoleGranted",
            "inputs": [
                {
                    "name": "role",
                    "type": "bytes32",
                    "indexed": true,
                    "internalType": "bytes32"
                },
                {
                    "name": "account",
                    "type": "address",
                    "indexed": true,
                    "internalType": "address"
                },
                {
                    "name": "sender",
                    "type": "address",
                    "indexed": true,
                    "internalType": "address"
                }
            ],
            "anonymous": false
        },
        {
            "type": "event",
            "name": "RoleRevoked",
            "inputs": [
                {
                    "name": "role",
                    "type": "bytes32",
                    "indexed": true,
                    "internalType": "bytes32"
                },
                {
                    "name": "account",
                    "type": "address",
                    "indexed": true,
                    "internalType": "address"
                },
                {
                    "name": "sender",
                    "type": "address",
                    "indexed": true,
                    "internalType": "address"
                }
            ],
            "anonymous": false
        },
        {
            "type": "event",
            "name": "SetDefaultMultiplierBps",
            "inputs": [
                {
                    "name": "multiplierBps",
                    "type": "uint16",
                    "indexed": false,
                    "internalType": "uint16"
                }
            ],
            "anonymous": false
        },
        {
            "type": "event",
            "name": "SetDstConfig",
            "inputs": [
                {
                    "name": "params",
                    "type": "tuple[]",
                    "indexed": false,
                    "internalType": "struct IDVN.DstConfigParam[]",
                    "components": [
                        {
                            "name": "dstEid",
                            "type": "uint32",
                            "internalType": "uint32"
                        },
                        {
                            "name": "gas",
                            "type": "uint64",
                            "internalType": "uint64"
                        },
                        {
                            "name": "multiplierBps",
                            "type": "uint16",
                            "internalType": "uint16"
                        },
                        {
                            "name": "floorMarginUSD",
                            "type": "uint128",
                            "internalType": "uint128"
                        }
                    ]
                }
            ],
            "anonymous": false
        },
        {
            "type": "event",
            "name": "SetPriceFeed",
            "inputs": [
                {
                    "name": "priceFeed",
                    "type": "address",
                    "indexed": false,
                    "internalType": "address"
                }
            ],
            "anonymous": false
        },
        {
            "type": "event",
            "name": "SetSupportedOptionTypes",
            "inputs": [
                {
                    "name": "dstEid",
                    "type": "uint32",
                    "indexed": false,
                    "internalType": "uint32"
                },
                {
                    "name": "optionTypes",
                    "type": "uint8[]",
                    "indexed": false,
                    "internalType": "uint8[]"
                }
            ],
            "anonymous": false
        },
        {
            "type": "event",
            "name": "SetWorkerLib",
            "inputs": [
                {
                    "name": "workerLib",
                    "type": "address",
                    "indexed": false,
                    "internalType": "address"
                }
            ],
            "anonymous": false
        },
        {
            "type": "event",
            "name": "Unpaused",
            "inputs": [
                {
                    "name": "account",
                    "type": "address",
                    "indexed": false,
                    "internalType": "address"
                }
            ],
            "anonymous": false
        },
        {
            "type": "event",
            "name": "UpdateQuorum",
            "inputs": [
                {
                    "name": "_quorum",
                    "type": "uint64",
                    "indexed": false,
                    "internalType": "uint64"
                }
            ],
            "anonymous": false
        },
        {
            "type": "event",
            "name": "UpdateSigner",
            "inputs": [
                {
                    "name": "_signer",
                    "type": "address",
                    "indexed": false,
                    "internalType": "address"
                },
                {
                    "name": "_active",
                    "type": "bool",
                    "indexed": false,
                    "internalType": "bool"
                }
            ],
            "anonymous": false
        },
        {
            "type": "event",
            "name": "VerifierFeePaid",
            "inputs": [
                {
                    "name": "fee",
                    "type": "uint256",
                    "indexed": false,
                    "internalType": "uint256"
                }
            ],
            "anonymous": false
        },
        {
            "type": "event",
            "name": "VerifySignaturesFailed",
            "inputs": [
                {
                    "name": "idx",
                    "type": "uint256",
                    "indexed": false,
                    "internalType": "uint256"
                }
            ],
            "anonymous": false
        },
        {
            "type": "event",
            "name": "Withdraw",
            "inputs": [
                {
                    "name": "lib",
                    "type": "address",
                    "indexed": false,
                    "internalType": "address"
                },
                {
                    "name": "to",
                    "type": "address",
                    "indexed": false,
                    "internalType": "address"
                },
                {
                    "name": "amount",
                    "type": "uint256",
                    "indexed": false,
                    "internalType": "uint256"
                }
            ],
            "anonymous": false
        },
        {
            "type": "error",
            "name": "DVN_DuplicatedHash",
            "inputs": [
                {
                    "name": "executableHash",
                    "type": "bytes32",
                    "internalType": "bytes32"
                }
            ]
        },
        {
            "type": "error",
            "name": "DVN_InstructionExpired",
            "inputs": []
        },
        {
            "type": "error",
            "name": "DVN_InvalidRole",
            "inputs": [
                {
                    "name": "role",
                    "type": "bytes32",
                    "internalType": "bytes32"
                }
            ]
        },
        {
            "type": "error",
            "name": "DVN_InvalidSignatures",
            "inputs": []
        },
        {
            "type": "error",
            "name": "DVN_InvalidTarget",
            "inputs": [
                {
                    "name": "target",
                    "type": "address",
                    "internalType": "address"
                }
            ]
        },
        {
            "type": "error",
            "name": "DVN_InvalidVid",
            "inputs": [
                {
                    "name": "vid",
                    "type": "uint32",
                    "internalType": "uint32"
                }
            ]
        },
        {
            "type": "error",
            "name": "DVN_OnlySelf",
            "inputs": []
        },
        {
            "type": "error",
            "name": "MultiSig_OnlySigner",
            "inputs": []
        },
        {
            "type": "error",
            "name": "MultiSig_QuorumIsZero",
            "inputs": []
        },
        {
            "type": "error",
            "name": "MultiSig_SignersSizeIsLessThanQuorum",
            "inputs": [
                {
                    "name": "signersSize",
                    "type": "uint64",
                    "internalType": "uint64"
                },
                {
                    "name": "quorum",
                    "type": "uint64",
                    "internalType": "uint64"
                }
            ]
        },
        {
            "type": "error",
            "name": "MultiSig_StateAlreadySet",
            "inputs": [
                {
                    "name": "signer",
                    "type": "address",
                    "internalType": "address"
                },
                {
                    "name": "active",
                    "type": "bool",
                    "internalType": "bool"
                }
            ]
        },
        {
            "type": "error",
            "name": "MultiSig_UnorderedSigners",
            "inputs": []
        },
        {
            "type": "error",
            "name": "Transfer_NativeFailed",
            "inputs": [
                {
                    "name": "_to",
                    "type": "address",
                    "internalType": "address"
                },
                {
                    "name": "_value",
                    "type": "uint256",
                    "internalType": "uint256"
                }
            ]
        },
        {
            "type": "error",
            "name": "Transfer_ToAddressIsZero",
            "inputs": []
        },
        {
            "type": "error",
            "name": "Worker_NotAllowed",
            "inputs": []
        },
        {
            "type": "error",
            "name": "Worker_OnlyMessageLib",
            "inputs": []
        },
        {
            "type": "error",
            "name": "Worker_RoleRenouncingDisabled",
            "inputs": []
        }
    ],
    "bytecode": {
        "object": "0x60a06040523480156200001157600080fd5b5060405162003d8f38038062003d8f8339810160408190526200003491620004c4565b6001805460ff61ffff60e81b01191661017760ed1b179055600280546001600160a01b0319166001600160a01b03861617905582828686612ee060008660005b8551811015620000d557620000cc7f724aface199fe5bed93ae8508474576a9adf3dc443b2c451842a2242919f19de878381518110620000b857620000b862000597565b60200260200101516200027b60201b60201c565b60010162000074565b5060005b815181101562000126576200011d7fa49807205ce4d355092ef5a8a18f56e8913cf4a201fbe287825b095693c21775838381518110620000b857620000b862000597565b600101620000d9565b505050505050806001600160401b03166000036200015757604051635f86e17760e01b815260040160405180910390fd5b806001600160401b0316825110156200019d5781516040516378e2c15760e11b81526001600160401b039182166004820152908216602482015260440160405180910390fd5b6000805b83518110156200022f576000848281518110620001c257620001c262000597565b60200260200101519050826001600160a01b0316816001600160a01b031611620001ff576040516305fa937f60e11b815260040160405180910390fd5b6001600160a01b0381166000908152600460205260409020805460ff1916600190811790915590925001620001a1565b50509051600580546001600160401b0393841668010000000000000000026001600160801b0319909116939092169290921717905550505063ffffffff90921660805250620005ea9050565b7f74845de37cfabd357633214b47fa91ccd19b05b7c5a08ac22c187f811fb62bca82148015620002cc57506000828152602081815260408083206001600160a01b038516845290915290205460ff16155b15620003195760018054601590620002f490600160a81b90046001600160401b0316620005ad565b91906101000a8154816001600160401b0302191690836001600160401b031602179055505b62000325828262000329565b5050565b6000828152602081815260408083206001600160a01b038516845290915290205460ff1662000325576000828152602081815260408083206001600160a01b03851684529091529020805460ff19166001179055620003853390565b6001600160a01b0316816001600160a01b0316837f2f8788117e7eff1d82e926ec794901d17c78024a50270940304540a733656f0d60405160405180910390a45050565b634e487b7160e01b600052604160045260246000fd5b80516001600160a01b0381168114620003f757600080fd5b919050565b600082601f8301126200040e57600080fd5b815160206001600160401b03808311156200042d576200042d620003c9565b8260051b604051601f19603f83011681018181108482111715620004555762000455620003c9565b60405293845260208187018101949081019250878511156200047657600080fd5b6020870191505b84821015620004a1576200049182620003df565b835291830191908301906200047d565b979650505050505050565b80516001600160401b0381168114620003f757600080fd5b60008060008060008060c08789031215620004de57600080fd5b865163ffffffff81168114620004f357600080fd5b60208801519096506001600160401b03808211156200051157600080fd5b6200051f8a838b01620003fc565b96506200052f60408a01620003df565b955060608901519150808211156200054657600080fd5b620005548a838b01620003fc565b94506200056460808a01620004ac565b935060a08901519150808211156200057b57600080fd5b506200058a89828a01620003fc565b9150509295509295509295565b634e487b7160e01b600052603260045260246000fd5b60006001600160401b038281166002600160401b03198101620005e057634e487b7160e01b600052601160045260246000fd5b6001019392505050565b60805161377b6200061460003960008181610777015281816113090152611bf0015261377b6000f3fe60806040526004361061023a5760003560e01c80638585c9451161012e578063c7a823e0116100ab578063d547741f1161006f578063d547741f146107d5578063dafe0ccc146107f5578063f010cb2314610815578063f3b4ebd014610835578063fd62e7501461085557600080fd5b8063c7a823e0146106f7578063c7b2370b14610725578063cd88b90314610745578063cf34c76814610765578063d2ae2104146107ae57600080fd5b8063aef18bf7116100f2578063aef18bf714610642578063b143044b14610672578063c358de0a14610692578063c416aa51146106b2578063c5e193cd146106d757600080fd5b80638585c9451461055557806391d148541461057557806395d376d7146105955780639e944965146105a8578063a217fddf1461062d57600080fd5b806330bb3aac116101bc5780635553fb8e116101805780635553fb8e146104955780635c975abb146104b5578063724e78da146104cd578063736c0d5b146104ed578063741bef1a1461051d57600080fd5b806330bb3aac146103f557806331cb61051461041557806336568abe146104355780634e2c6c091461045557806352d3b8711461047557600080fd5b80631703a018116102035780631703a0181461030b578063248a9ca31461034a57806326e67a37146103885780632de11376146103b55780632f2ff15d146103d557600080fd5b8062bf2e801461023f57806301e336671461027957806301ffc9a71461029b5780631095b6d7146102cb57806316c38b3c146102eb575b600080fd5b34801561024b57600080fd5b5060015461026190600160e81b900461ffff1681565b60405161ffff90911681526020015b60405180910390f35b34801561028557600080fd5b50610299610294366004612a04565b610875565b005b3480156102a757600080fd5b506102bb6102b6366004612a45565b61089e565b6040519015158152602001610270565b3480156102d757600080fd5b506102996102e6366004612a04565b6108d5565b3480156102f757600080fd5b50610299610306366004612a7d565b6109d7565b34801561031757600080fd5b5060055461033290600160401b90046001600160401b031681565b6040516001600160401b039091168152602001610270565b34801561035657600080fd5b5061037a610365366004612a9a565b60009081526020819052604090206001015490565b604051908152602001610270565b34801561039457600080fd5b506103a86103a3366004612ac7565b6109fc565b6040516102709190612ae2565b3480156103c157600080fd5b506102bb6103d0366004612b29565b610a83565b3480156103e157600080fd5b506102996103f0366004612b46565b610b08565b34801561040157600080fd5b5061037a610410366004612bce565b610be2565b34801561042157600080fd5b50610299610430366004612c45565b610cfa565b34801561044157600080fd5b50610299610450366004612b46565b610d24565b34801561046157600080fd5b50610299610470366004612c73565b610d3d565b34801561048157600080fd5b50610299610490366004612ce2565b610dee565b3480156104a157600080fd5b5061037a6104b0366004612d68565b610f67565b3480156104c157600080fd5b5060015460ff166102bb565b3480156104d957600080fd5b506102996104e8366004612b29565b61107f565b3480156104f957600080fd5b506102bb610508366004612b29565b60046020526000908152604090205460ff1681565b34801561052957600080fd5b5060025461053d906001600160a01b031681565b6040516001600160a01b039091168152602001610270565b34801561056157600080fd5b50610299610570366004612dbe565b6110ed565b34801561058157600080fd5b506102bb610590366004612b46565b611119565b61037a6105a3366004612df1565b611142565b3480156105b457600080fd5b506105fc6105c3366004612ac7565b6006602052600090815260409020546001600160401b03811690600160401b810461ffff1690600160501b90046001600160801b031683565b604080516001600160401b03909416845261ffff90921660208401526001600160801b031690820152606001610270565b34801561063957600080fd5b5061037a600081565b34801561064e57600080fd5b506102bb61065d366004612a9a565b60076020526000908152604090205460ff1681565b34801561067e57600080fd5b5061029961068d366004612e9d565b6112b8565b34801561069e57600080fd5b506102996106ad366004612ede565b61156d565b3480156106be57600080fd5b5060015461053d9061010090046001600160a01b031681565b3480156106e357600080fd5b5061037a6106f2366004612d68565b6115d5565b34801561070357600080fd5b50610717610712366004612ef9565b611742565b604051610270929190612f4d565b34801561073157600080fd5b50610299610740366004612b29565b61191f565b34801561075157600080fd5b50610299610760366004612f81565b61198d565b34801561077157600080fd5b506107997f000000000000000000000000000000000000000000000000000000000000000081565b60405163ffffffff9091168152602001610270565b3480156107ba57600080fd5b5060015461033290600160a81b90046001600160401b031681565b3480156107e157600080fd5b506102996107f0366004612b46565b6119cc565b34801561080157600080fd5b50610299610810366004612a04565b611a80565b34801561082157600080fd5b5061037a610830366004612fc6565b611b35565b34801561084157600080fd5b50610299610850366004613030565b611b71565b34801561086157600080fd5b50600554610332906001600160401b031681565b60008051602061370683398151915261088d81611d1f565b610898848484611d29565b50505050565b60006001600160e01b03198216637965db0b60e01b14806108cf57506301ffc9a760e01b6001600160e01b03198316145b92915050565b6000805160206137068339815191526108ed81611d1f565b6109056000805160206136e683398151915285611119565b61092257604051635ee08b9760e01b815260040160405180910390fd5b604051637ecdf29160e11b81526001600160a01b0384811660048301526024820184905285169063fd9be52290604401600060405180830381600087803b15801561096c57600080fd5b505af1158015610980573d6000803e3d6000fd5b5050604080516001600160a01b038089168252871660208201529081018590527f9b1bfa7fa9ee420a16e124f794c35ac9f90472acc99140eb2f6447c714cad8eb925060600190505b60405180910390a150505050565b60006109e281611d1f565b81156109f4576109f0611d4c565b5050565b6109f0611da0565b63ffffffff8116600090815260036020908152604091829020805483518184028101840190945280845260609392830182828015610a7757602002820191906000526020600020906000905b825461010083900a900460ff16815260206001928301818104948501949093039092029101808411610a485790505b50505050509050919050565b6000610aaf7f4270fae16c6d150d00e80b689daca99e8073b1838ff2b6063a37be9d851283e483611119565b15610abc57506000919050565b600154600160a81b90046001600160401b03161580610aee5750610aee60008051602061372683398151915283611119565b15610afb57506001919050565b506000919050565b919050565b81600080516020613726833981519152811480610b4457507f4270fae16c6d150d00e80b689daca99e8073b1838ff2b6063a37be9d851283e481145b80610b5c57506000805160206136e683398151915281145b15610b8657303314610b8157604051637d5d391d60e11b815260040160405180910390fd5b610bd3565b6000805160206137068339815191528103610bb257610b81600080516020613706833981519152611d1f565b604051634a7ee1b960e11b8152600481018290526024015b60405180910390fd5b610bdd8383611dd9565b505050565b600083610bee81610a83565b610c0b57604051634ab5ebcd60e01b815260040160405180910390fd5b6040805160c0810182526002546001600160a01b03908116825263ffffffff8a1660208084018290526001600160401b03808c16858701528a84166060860152600554600160401b900416608085015260015461ffff600160e81b82041660a086015260009283526006909152908490209351637bfa20a960e01b8152929361010090910490911691637bfa20a991610cad918591908a908a906004016130ec565b602060405180830381865afa158015610cca573d6000803e3d6000fd5b505050506040513d601f19601f82011682018060405250810190610cee9190613146565b98975050505050505050565b303314610d1a57604051637d5d391d60e11b815260040160405180910390fd5b6109f08282611e51565b60405163dec9f03160e01b815260040160405180910390fd5b600080516020613706833981519152610d56565b610d82565b6000805160206137068339815191528103610bb257610d51600080516020613706833981519152611d1f565b604051630111a9b760e11b81526001600160a01b03871690630223536e90610db490889088908890889060040161315f565b600060405180830381600087803b158015610dce57600080fd5b505af1158015610de2573d6000803e3d6000fd5b50505050505050505050565b600080516020613706833981519152610e0681611d1f565b60005b82811015610f285736848483818110610e2457610e24613193565b90506080020190506040518060600160405280826020016020810190610e4a9190612dbe565b6001600160401b03168152602001610e686060840160408501612ede565b61ffff168152602001610e8160808401606085016131c0565b6001600160801b0316905260066000610e9d6020850185612ac7565b63ffffffff1681526020808201929092526040908101600020835181549385015194909201516001600160801b0316600160501b026fffffffffffffffffffffffffffffffff60501b1961ffff909516600160401b0269ffffffffffffffffffff199094166001600160401b0390931692909217929092179290921691909117905550600101610e09565b507f7dd21e42791b013d1929e86f0c59085e4fca24251f0f1aa81917b3b1611766e08383604051610f5a9291906131db565b60405180910390a1505050565b600081610f7381610a83565b610f9057604051634ab5ebcd60e01b815260040160405180910390fd5b6040805160c0810182526002546001600160a01b03908116825261ffff808a1660208085018290526001600160401b03808b16868801528985166060870152600554600160401b9004166080860152600154600160e81b810490931660a0860152600091825260068152858220865191820187529181529451637bfa20a960e01b8152939461010090920490921692637bfa20a9926110339286926004016132bf565b602060405180830381865afa158015611050573d6000803e3d6000fd5b505050506040513d601f19601f820116820180604052508101906110749190613146565b979650505050505050565b60008051602061370683398151915261109781611d1f565b600280546001600160a01b0319166001600160a01b0384169081179091556040519081527ff724a45d041687842411f2b977ef22ab8f43c8f1104f4592b42a00f9b34a643d906020015b60405180910390a15050565b30331461110d57604051637d5d391d60e11b815260040160405180910390fd5b61111681611fac565b50565b6000918252602082815260408084206001600160a01b0393909316845291905290205460ff1690565b60006000805160206136e683398151915261115c81611d1f565b61116c60a0860160808701612b29565b61117581610a83565b61119257604051634ab5ebcd60e01b815260040160405180910390fd5b6040805160c081019091526002546001600160a01b031681526000906020808201906111c0908a018a612ac7565b63ffffffff1681526020016111db60808a0160608b01612dbe565b6001600160401b031681526020016111f960a08a0160808b01612b29565b6001600160a01b039081168252600554600160401b90046001600160401b0316602080840191909152600154600160e81b810461ffff16604090940193909352929350610100909104169063df2b057e90839060069060009061125e908d018d612ac7565b63ffffffff1663ffffffff16815260200190815260200160002089896040518563ffffffff1660e01b815260040161129994939291906130ec565b6020604051808303816000875af1158015611050573d6000803e3d6000fd5b6000805160206137068339815191526112d081611d1f565b60005b8281101561089857368484838181106112ee576112ee613193565b90506020028101906113009190613322565b905063ffffffff7f0000000000000000000000000000000000000000000000000000000000000000166113366020830183612ac7565b63ffffffff16146113475750611565565b428160600135116113585750611565565b600061139161136a6020840184612ac7565b61137a6040850160208601612b29565b6113876040860186613342565b8660600135611b35565b905060006113a6826107126080860186613342565b509050806113e9576040518481527fd6d90193101048cc1b6edcdc2348f5acf7a4a4a97d3e7b668b74cb7602ab3ebc9060200160405180910390a1505050611565565b60006114096113fb6040860186613342565b61140491613388565b61207a565b905080156114845760008381526007602052604090205460ff161561146a577f9bb9bddbdf537a2104255307230b323d7982f4512ee8e5bd15df62ddca50ab9784846040516114599291906133fd565b60405180910390a150505050611565565b6000838152600760205260409020805460ff191660011790555b6000806114976040870160208801612b29565b6001600160a01b03166114ad6040880188613342565b6040516114bb929190613498565b6000604051808303816000865af19150503d80600081146114f8576040519150601f19603f3d011682016040523d82523d6000602084013e6114fd565b606091505b50915091508161155e578215611524576000858152600760205260409020805460ff191690555b7fdc8cdd96296241bbefda4a8e18ad2e0985a8da6495b34d409cfc4c886ee3b0cf87826040516115559291906134a8565b60405180910390a15b5050505050505b6001016112d3565b60008051602061370683398151915261158581611d1f565b6001805461ffff60e81b1916600160e81b61ffff8516908102919091179091556040519081527f7af0ac740036ffb1c97b03697859d729e80a44ae5030543d64971c313565ab4d906020016110e1565b60006000805160206136e68339815191526115ef81611d1f565b826115f981610a83565b61161657604051634ab5ebcd60e01b815260040160405180910390fd5b6040805160c0810182526002546001600160a01b03908116825261ffff808b1660208085018290526001600160401b03808c16868801528a85166060870152600554600160401b9004166080860152600154600160e81b810490931660a0860152600091825260068152858220865191820187529181529451636f9582bf60e11b815293946101009092049092169263df2b057e926116b99286926004016132bf565b6020604051808303816000875af11580156116d8573d6000803e3d6000fd5b505050506040513d601f19601f820116820180604052508101906116fc9190613146565b93507f87e46b0a6199bc734632187269a103c05714ee0adae5b28f30723955724f37ef8460405161172f91815260200190565b60405180910390a1505050949350505050565b600554600090819061176590600160401b90046001600160401b031660416134d7565b83146117775750600090506001611917565b60006117d0866040517f19457468657265756d205369676e6564204d6573736167653a0a3332000000006020820152603c8101829052600090605c01604051602081830303815290604052805190602001209050919050565b90506000805b600554600160401b90046001600160401b031681101561190b5736600088886118008560416134d7565b9061180c8660016134ee565b6118179060416134d7565b9261182493929190613501565b9150915060008061186b8785858080601f0160208091040260200160405190810160405280939291908181526020018383808284376000920191909152506120b392505050565b9092509050600081600481111561188457611884612f37565b1461189d57600060019850985050505050505050611917565b856001600160a01b0316826001600160a01b0316116118ca57600060029850985050505050505050611917565b6001600160a01b03821660009081526004602052604090205460ff166118fe57600060039850985050505050505050611917565b50935050506001016117d6565b50600160009350935050505b935093915050565b60008051602061370683398151915261193781611d1f565b60018054610100600160a81b0319166101006001600160a01b038516908102919091179091556040519081527f1399be28223800f8669b3ba5f8721d9fc16fc4e8d0bbf98378791c8c5a3015e0906020016110e1565b6000805160206137068339815191526119a581611d1f565b63ffffffff841660009081526003602052604090206119c5908484612931565b5050505050565b81600080516020613726833981519152811480611a0857507f4270fae16c6d150d00e80b689daca99e8073b1838ff2b6063a37be9d851283e481145b80611a2057506000805160206136e683398151915281145b15611a4a57303314611a4557604051637d5d391d60e11b815260040160405180910390fd5b611a76565b6000805160206137068339815191528103610bb257611a45600080516020613706833981519152611d1f565b610bdd83836120f8565b600080516020613706833981519152611a9881611d1f565b611ab06000805160206136e683398151915285611119565b611acd57604051635ee08b9760e01b815260040160405180910390fd5b6040516303d8c5ef60e11b81526001600160a01b038481166004830152602482018490528516906307b18bde90604401600060405180830381600087803b158015611b1757600080fd5b505af1158015611b2b573d6000803e3d6000fd5b5050505050505050565b60008585838686604051602001611b5095949392919061352b565b60405160208183030381529060405280519060200120905095945050505050565b42816060013511611b9557604051630bbaf26360e01b815260040160405180910390fd5b30611ba66040830160208401612b29565b6001600160a01b031614611be957611bc46040820160208301612b29565b604051631ce0bfcd60e01b81526001600160a01b039091166004820152602401610bca565b63ffffffff7f000000000000000000000000000000000000000000000000000000000000000016611c1d6020830183612ac7565b63ffffffff1614611c5757611c356020820182612ac7565b60405163134bf0e160e11b815263ffffffff9091166004820152602401610bca565b6000611c6961136a6020840184612ac7565b90506000611c7e826107126080860186613342565b50905080611c9f57604051630af656f760e11b815260040160405180910390fd5b60008281526007602052604090205460ff1615611cd257604051634eb522d360e11b815260048101839052602401610bca565b60008281526007602052604090819020805460ff19166001179055610bdd9060008051602061370683398151915290611d0d90860186613342565b810190611d1a9190612b29565b611dd9565b611116813361216e565b6001600160a01b038316611d4157610bdd82826121c7565b610bdd838383612274565b611d546122af565b6001805460ff1916811790557f62e78cea01bee320cd4e420270b5ea74000d11b0c9f74754ebdbfc544b05a258335b6040516001600160a01b03909116815260200160405180910390a1565b611da86122f7565b6001805460ff191690557f5db9ee0a495bf2e6ff9c91a7834c1ba4fdd244a5e8aa4e537bd38aeae4b073aa33611d83565b60008051602061372683398151915282148015611dfd5750611dfb8282611119565b155b15611e475760018054601590611e2290600160a81b90046001600160401b0316613571565b91906101000a8154816001600160401b0302191690836001600160401b031602179055505b6109f08282612340565b6001600160a01b03821660009081526004602052604090205481151560ff909116151503611ea5576040516302c6469560e51b81526001600160a01b03831660048201528115156024820152604401610bca565b6001600160a01b0382166000908152600460205260408120805460ff191683151517905581611eeb57600554611ee6906001906001600160401b0316613597565b611f02565b600554611f02906001600160401b031660016135be565b6005549091506001600160401b03600160401b9091048116908216811115611f50576040516378e2c15760e11b81526001600160401b03808416600483015282166024820152604401610bca565b6005805467ffffffffffffffff19166001600160401b038416179055604080516001600160a01b038616815284151560208201527f863d338cad74814b108a06288ad5e0e80d56495e0332238b1d2cdcfa0ca8e5ce91016109c9565b806001600160401b0316600003611fd657604051635f86e17760e01b815260040160405180910390fd5b6005546001600160401b0390811690821681101561201a576040516378e2c15760e11b81526001600160401b03808316600483015283166024820152604401610bca565b600580546fffffffffffffffff00000000000000001916600160401b6001600160401b038516908102919091179091556040519081527fb600f3cf7f38a4b49bb0c75f722ef69f7e3e39ef3bb4aa8207fd86e724a23249906020016110e1565b60006001600160e01b03198216630111a9b760e11b148015906108cf57506001600160e01b0319821663704316e560e01b141592915050565b60008082516041036120e95760208301516040840151606085015160001a6120dd878285856123c4565b945094505050506120f1565b506000905060025b9250929050565b6000805160206137268339815191528214801561211a575061211a8282611119565b15612164576001805460159061213f90600160a81b90046001600160401b03166135de565b91906101000a8154816001600160401b0302191690836001600160401b031602179055505b6109f08282612488565b6121788282611119565b6109f057612185816124ed565b6121908360206124ff565b6040516020016121a1929190613601565b60408051601f198184030181529082905262461bcd60e51b8252610bca91600401613676565b6001600160a01b0382166121ee576040516306b7a93160e41b815260040160405180910390fd5b6000826001600160a01b03168260405160006040518083038185875af1925050503d806000811461223b576040519150601f19603f3d011682016040523d82523d6000602084013e612240565b606091505b5050905080610bdd57604051631196f20d60e21b81526001600160a01b038416600482015260248101839052604401610bca565b6001600160a01b03821661229b576040516306b7a93160e41b815260040160405180910390fd5b610bdd6001600160a01b03841683836126a1565b60015460ff16156122f55760405162461bcd60e51b815260206004820152601060248201526f14185d5cd8589b194e881c185d5cd95960821b6044820152606401610bca565b565b60015460ff166122f55760405162461bcd60e51b815260206004820152601460248201527314185d5cd8589b194e881b9bdd081c185d5cd95960621b6044820152606401610bca565b61234a8282611119565b6109f0576000828152602081815260408083206001600160a01b03851684529091529020805460ff191660011790556123803390565b6001600160a01b0316816001600160a01b0316837f2f8788117e7eff1d82e926ec794901d17c78024a50270940304540a733656f0d60405160405180910390a45050565b6000807f7fffffffffffffffffffffffffffffff5d576e7357a4501ddfe92f46681b20a08311156123fb575060009050600361247f565b6040805160008082526020820180845289905260ff881692820192909252606081018690526080810185905260019060a0016020604051602081039080840390855afa15801561244f573d6000803e3d6000fd5b5050604051601f1901519150506001600160a01b0381166124785760006001925092505061247f565b9150600090505b94509492505050565b6124928282611119565b156109f0576000828152602081815260408083206001600160a01b0385168085529252808320805460ff1916905551339285917ff6391f5c32d9c69d2a47ea670b442974b53935d1edc7fd64eb21e047a839171b9190a45050565b60606108cf6001600160a01b03831660145b6060600061250e8360026134d7565b6125199060026134ee565b6001600160401b0381111561253057612530613689565b6040519080825280601f01601f19166020018201604052801561255a576020820181803683370190505b509050600360fc1b8160008151811061257557612575613193565b60200101906001600160f81b031916908160001a905350600f60fb1b816001815181106125a4576125a4613193565b60200101906001600160f81b031916908160001a90535060006125c88460026134d7565b6125d39060016134ee565b90505b600181111561264b576f181899199a1a9b1b9c1cb0b131b232b360811b85600f166010811061260757612607613193565b1a60f81b82828151811061261d5761261d613193565b60200101906001600160f81b031916908160001a90535060049490941c936126448161369f565b90506125d6565b50831561269a5760405162461bcd60e51b815260206004820181905260248201527f537472696e67733a20686578206c656e67746820696e73756666696369656e746044820152606401610bca565b9392505050565b604080516001600160a01b03848116602483015260448083018590528351808403909101815260649092018352602080830180516001600160e01b031663a9059cbb60e01b17905283518085019094528084527f5361666545524332303a206c6f772d6c6576656c2063616c6c206661696c656490840152610bdd928692916000916127319185169084906127b1565b905080516000148061275257508080602001905181019061275291906136b6565b610bdd5760405162461bcd60e51b815260206004820152602a60248201527f5361666545524332303a204552433230206f7065726174696f6e20646964206e6044820152691bdd081cdd58d8d9595960b21b6064820152608401610bca565b60606127c084846000856127c8565b949350505050565b6060824710156128295760405162461bcd60e51b815260206004820152602660248201527f416464726573733a20696e73756666696369656e742062616c616e636520666f6044820152651c8818d85b1b60d21b6064820152608401610bca565b600080866001600160a01b0316858760405161284591906136d3565b60006040518083038185875af1925050503d8060008114612882576040519150601f19603f3d011682016040523d82523d6000602084013e612887565b606091505b509150915061107487838387606083156129025782516000036128fb576001600160a01b0385163b6128fb5760405162461bcd60e51b815260206004820152601d60248201527f416464726573733a2063616c6c20746f206e6f6e2d636f6e74726163740000006044820152606401610bca565b50816127c0565b6127c083838151156129175781518083602001fd5b8060405162461bcd60e51b8152600401610bca9190613676565b82805482825590600052602060002090601f016020900481019282156129ca5791602002820160005b8382111561299b57833560ff1683826101000a81548160ff021916908360ff160217905550926020019260010160208160000104928301926001030261295a565b80156129c85782816101000a81549060ff021916905560010160208160000104928301926001030261299b565b505b506129d69291506129da565b5090565b5b808211156129d657600081556001016129db565b6001600160a01b038116811461111657600080fd5b600080600060608486031215612a1957600080fd5b8335612a24816129ef565b92506020840135612a34816129ef565b929592945050506040919091013590565b600060208284031215612a5757600080fd5b81356001600160e01b03198116811461269a57600080fd5b801515811461111657600080fd5b600060208284031215612a8f57600080fd5b813561269a81612a6f565b600060208284031215612aac57600080fd5b5035919050565b803563ffffffff81168114610b0357600080fd5b600060208284031215612ad957600080fd5b61269a82612ab3565b6020808252825182820181905260009190848201906040850190845b81811015612b1d57835160ff1683529284019291840191600101612afe565b50909695505050505050565b600060208284031215612b3b57600080fd5b813561269a816129ef565b60008060408385031215612b5957600080fd5b823591506020830135612b6b816129ef565b809150509250929050565b80356001600160401b0381168114610b0357600080fd5b60008083601f840112612b9f57600080fd5b5081356001600160401b03811115612bb657600080fd5b6020830191508360208285010111156120f157600080fd5b600080600080600060808688031215612be657600080fd5b612bef86612ab3565b9450612bfd60208701612b76565b93506040860135612c0d816129ef565b925060608601356001600160401b03811115612c2857600080fd5b612c3488828901612b8d565b969995985093965092949392505050565b60008060408385031215612c5857600080fd5b8235612c63816129ef565b91506020830135612b6b81612a6f565b600080600080600060808688031215612c8b57600080fd5b8535612c96816129ef565b945060208601356001600160401b03811115612cb157600080fd5b612cbd88828901612b8d565b90955093505060408601359150612cd660608701612b76565b90509295509295909350565b60008060208385031215612cf557600080fd5b82356001600160401b0380821115612d0c57600080fd5b818501915085601f830112612d2057600080fd5b813581811115612d2f57600080fd5b8660208260071b8501011115612d4457600080fd5b60209290920196919550909350505050565b803561ffff81168114610b0357600080fd5b60008060008060808587031215612d7e57600080fd5b612d8785612d56565b9350612d9560208601612d56565b9250612da360408601612b76565b91506060850135612db3816129ef565b939692955090935050565b600060208284031215612dd057600080fd5b61269a82612b76565b600060a08284031215612deb57600080fd5b50919050565b600080600060408486031215612e0657600080fd5b83356001600160401b0380821115612e1d57600080fd5b612e2987838801612dd9565b94506020860135915080821115612e3f57600080fd5b50612e4c86828701612b8d565b9497909650939450505050565b60008083601f840112612e6b57600080fd5b5081356001600160401b03811115612e8257600080fd5b6020830191508360208260051b85010111156120f157600080fd5b60008060208385031215612eb057600080fd5b82356001600160401b03811115612ec657600080fd5b612ed285828601612e59565b90969095509350505050565b600060208284031215612ef057600080fd5b61269a82612d56565b600080600060408486031215612f0e57600080fd5b8335925060208401356001600160401b03811115612f2b57600080fd5b612e4c86828701612b8d565b634e487b7160e01b600052602160045260246000fd5b82151581526040810160048310612f7457634e487b7160e01b600052602160045260246000fd5b8260208301529392505050565b600080600060408486031215612f9657600080fd5b612f9f84612ab3565b925060208401356001600160401b03811115612fba57600080fd5b612e4c86828701612e59565b600080600080600060808688031215612fde57600080fd5b612fe786612ab3565b94506020860135612ff7816129ef565b935060408601356001600160401b0381111561301257600080fd5b61301e88828901612b8d565b96999598509660600135949350505050565b60006020828403121561304257600080fd5b81356001600160401b0381111561305857600080fd5b6127c084828501612dd9565b60018060a01b0380825116835263ffffffff602083015116602084015260408201516001600160401b03808216604086015282606085015116606086015280608085015116608086015250505061ffff60a08201511660a08301525050565b81835281816020850137506000828201602090810191909152601f909101601f19169091010190565b60006101406130fb8388613064565b61313260c0840187546001600160401b0381168252604081811c61ffff16602084015260509190911c6001600160801b0316910152565b8061012084015261107481840185876130c3565b60006020828403121561315857600080fd5b5051919050565b6060815260006131736060830186886130c3565b90508360208301526001600160401b038316604083015295945050505050565b634e487b7160e01b600052603260045260246000fd5b80356001600160801b0381168114610b0357600080fd5b6000602082840312156131d257600080fd5b61269a826131a9565b6020808252818101839052600090604080840186845b878110156132625763ffffffff61320783612ab3565b1683526001600160401b0361321d868401612b76565b168584015261ffff613230858401612d56565b168484015260606001600160801b0361324a8285016131a9565b169084015260809283019291909101906001016131f1565b5090979650505050505050565b60005b8381101561328a578181015183820152602001613272565b50506000910152565b600081518084526132ab81602086016020860161326f565b601f01601f19169290920160200192915050565b60006101406132ce8387613064565b61330560c0840186546001600160401b0381168252604081811c61ffff16602084015260509190911c6001600160801b0316910152565b8061012084015261331881840185613293565b9695505050505050565b60008235609e1983360301811261333857600080fd5b9190910192915050565b6000808335601e1984360301811261335957600080fd5b8301803591506001600160401b0382111561337357600080fd5b6020019150368190038213156120f157600080fd5b6001600160e01b031981358181169160048510156133b05780818660040360031b1b83161692505b505092915050565b6000808335601e198436030181126133cf57600080fd5b83016020810192503590506001600160401b038111156133ee57600080fd5b8036038213156120f157600080fd5b6040815263ffffffff61340f84612ab3565b16604082015260006020840135613425816129ef565b6001600160a01b0316606083015261344060408501856133b8565b60a0608085015261345560e0850182846130c3565b915050606085013560a084015261346f60808601866133b8565b848303603f190160c08601526134868382846130c3565b93505050508260208301529392505050565b8183823760009101908152919050565b8281526040602082015260006127c06040830184613293565b634e487b7160e01b600052601160045260246000fd5b80820281158282048414176108cf576108cf6134c1565b808201808211156108cf576108cf6134c1565b6000808585111561351157600080fd5b8386111561351e57600080fd5b5050820193919092039150565b63ffffffff60e01b8660e01b1681526bffffffffffffffffffffffff198560601b1660048201528360188201528183603883013760009101603801908152949350505050565b60006001600160401b0380831681810361358d5761358d6134c1565b6001019392505050565b6001600160401b038281168282160390808211156135b7576135b76134c1565b5092915050565b6001600160401b038181168382160190808211156135b7576135b76134c1565b60006001600160401b038216806135f7576135f76134c1565b6000190192915050565b7f416363657373436f6e74726f6c3a206163636f756e742000000000000000000081526000835161363981601785016020880161326f565b7001034b99036b4b9b9b4b733903937b6329607d1b601791840191820152835161366a81602884016020880161326f565b01602801949350505050565b60208152600061269a6020830184613293565b634e487b7160e01b600052604160045260246000fd5b6000816136ae576136ae6134c1565b506000190190565b6000602082840312156136c857600080fd5b815161269a81612a6f565b6000825161333881846020870161326f56fe724aface199fe5bed93ae8508474576a9adf3dc443b2c451842a2242919f19dea49807205ce4d355092ef5a8a18f56e8913cf4a201fbe287825b095693c2177574845de37cfabd357633214b47fa91ccd19b05b7c5a08ac22c187f811fb62bcaa2646970667358221220ee8371ffa0eb4f44b56e9e5a8925605006797cd20bcbf8a55c6b9c12fe51b1de64736f6c63430008180033",
        "linkReferences": {}
    },
    "methodIdentifiers": {
        "DEFAULT_ADMIN_ROLE()": "a217fddf",
        "allowlistSize()": "d2ae2104",
        "assignJob((uint32,bytes,bytes32,uint64,address),bytes)": "95d376d7",
        "assignJob(uint16,uint16,uint64,address)": "c5e193cd",
        "defaultMultiplierBps()": "00bf2e80",
        "dstConfig(uint32)": "9e944965",
        "execute((uint32,address,bytes,uint256,bytes)[])": "b143044b",
        "getFee(uint16,uint16,uint64,address)": "5553fb8e",
        "getFee(uint32,uint64,address,bytes)": "30bb3aac",
        "getRoleAdmin(bytes32)": "248a9ca3",
        "getSupportedOptionTypes(uint32)": "26e67a37",
        "grantRole(bytes32,address)": "2f2ff15d",
        "hasAcl(address)": "2de11376",
        "hasRole(bytes32,address)": "91d14854",
        "hashCallData(uint32,address,bytes,uint256)": "f010cb23",
        "paused()": "5c975abb",
        "priceFeed()": "741bef1a",
        "quorum()": "1703a018",
        "quorumChangeAdmin((uint32,address,bytes,uint256,bytes))": "f3b4ebd0",
        "renounceRole(bytes32,address)": "36568abe",
        "revokeRole(bytes32,address)": "d547741f",
        "setDefaultMultiplierBps(uint16)": "c358de0a",
        "setDstConfig((uint32,uint64,uint16,uint128)[])": "52d3b871",
        "setPaused(bool)": "16c38b3c",
        "setPriceFeed(address)": "724e78da",
        "setQuorum(uint64)": "8585c945",
        "setSigner(address,bool)": "31cb6105",
        "setSupportedOptionTypes(uint32,uint8[])": "cd88b903",
        "setWorkerFeeLib(address)": "c7b2370b",
        "signerSize()": "fd62e750",
        "signers(address)": "736c0d5b",
        "supportsInterface(bytes4)": "01ffc9a7",
        "usedHashes(bytes32)": "aef18bf7",
        "verify(address,bytes,bytes32,uint64)": "4e2c6c09",
        "verifySignatures(bytes32,bytes)": "c7a823e0",
        "vid()": "cf34c768",
        "withdrawFee(address,address,uint256)": "1095b6d7",
        "withdrawFeeFromUlnV2(address,address,uint256)": "dafe0ccc",
        "withdrawToken(address,address,uint256)": "01e33667",
        "workerFeeLib()": "c416aa51"
    },
    "id": 19
}