{
    "abi": [
        {
            "type": "function",
            "name": "EMPTY_PAYLOAD_HASH",
            "inputs": [],
            "outputs": [
                {
                    "name": "",
                    "type": "bytes32",
                    "internalType": "bytes32"
                }
            ],
            "stateMutability": "view"
        },
        {
            "type": "function",
            "name": "NIL_PAYLOAD_HASH",
            "inputs": [],
            "outputs": [
                {
                    "name": "",
                    "type": "bytes32",
                    "internalType": "bytes32"
                }
            ],
            "stateMutability": "view"
        },
        {
            "type": "function",
            "name": "endpoint",
            "inputs": [],
            "outputs": [
                {
                    "name": "",
                    "type": "address",
                    "internalType": "contract ILayerZeroEndpointV2"
                }
            ],
            "stateMutability": "view"
        },
        {
            "type": "function",
            "name": "executable",
            "inputs": [
                {
                    "name": "_origin",
                    "type": "tuple",
                    "internalType": "struct Origin",
                    "components": [
                        {
                            "name": "srcEid",
                            "type": "uint32",
                            "internalType": "uint32"
                        },
                        {
                            "name": "sender",
                            "type": "bytes32",
                            "internalType": "bytes32"
                        },
                        {
                            "name": "nonce",
                            "type": "uint64",
                            "internalType": "uint64"
                        }
                    ]
                },
                {
                    "name": "_receiver",
                    "type": "address",
                    "internalType": "address"
                }
            ],
            "outputs": [
                {
                    "name": "",
                    "type": "uint8",
                    "internalType": "enum ExecutionState"
                }
            ],
            "stateMutability": "view"
        },
        {
            "type": "function",
            "name": "initializable",
            "inputs": [
                {
                    "name": "_origin",
                    "type": "tuple",
                    "internalType": "struct Origin",
                    "components": [
                        {
                            "name": "srcEid",
                            "type": "uint32",
                            "internalType": "uint32"
                        },
                        {
                            "name": "sender",
                            "type": "bytes32",
                            "internalType": "bytes32"
                        },
                        {
                            "name": "nonce",
                            "type": "uint64",
                            "internalType": "uint64"
                        }
                    ]
                },
                {
                    "name": "_receiver",
                    "type": "address",
                    "internalType": "address"
                }
            ],
            "outputs": [
                {
                    "name": "",
                    "type": "bool",
                    "internalType": "bool"
                }
            ],
            "stateMutability": "view"
        },
        {
            "type": "function",
            "name": "initialize",
            "inputs": [
                {
                    "name": "_endpoint",
                    "type": "address",
                    "internalType": "address"
                }
            ],
            "outputs": [],
            "stateMutability": "nonpayable"
        },
        {
            "type": "function",
            "name": "verifiable",
            "inputs": [
                {
                    "name": "_origin",
                    "type": "tuple",
                    "internalType": "struct Origin",
                    "components": [
                        {
                            "name": "srcEid",
                            "type": "uint32",
                            "internalType": "uint32"
                        },
                        {
                            "name": "sender",
                            "type": "bytes32",
                            "internalType": "bytes32"
                        },
                        {
                            "name": "nonce",
                            "type": "uint64",
                            "internalType": "uint64"
                        }
                    ]
                },
                {
                    "name": "_receiver",
                    "type": "address",
                    "internalType": "address"
                },
                {
                    "name": "_receiveLib",
                    "type": "address",
                    "internalType": "address"
                },
                {
                    "name": "_payloadHash",
                    "type": "bytes32",
                    "internalType": "bytes32"
                }
            ],
            "outputs": [
                {
                    "name": "",
                    "type": "bool",
                    "internalType": "bool"
                }
            ],
            "stateMutability": "view"
        },
        {
            "type": "event",
            "name": "Initialized",
            "inputs": [
                {
                    "name": "version",
                    "type": "uint8",
                    "indexed": false,
                    "internalType": "uint8"
                }
            ],
            "anonymous": false
        }
    ],
    "bytecode": {
        "object": "0x608060405234801561001057600080fd5b50610a01806100206000396000f3fe608060405234801561001057600080fd5b506004361061007d5760003560e01c8063861e1ca51161005b578063861e1ca5146100ef578063c4d66de814610112578063cb5026b914610127578063e1e3a7df1461012f57600080fd5b80632baf0be7146100825780634b4b2efb1461009e5780635e280f11146100be575b600080fd5b61008b60001981565b6040519081526020015b60405180910390f35b6100b16100ac366004610826565b610142565b604051610095919061085a565b6000546100d7906201000090046001600160a01b031681565b6040516001600160a01b039091168152602001610095565b6101026100fd366004610826565b6103a1565b6040519015158152602001610095565b610125610120366004610882565b610421565b005b61008b600081565b61010261013d36600461089d565b6105b8565b6000805483516020850151604080870151905163c9fc7bcd60e01b81526001600160a01b03878116600483015263ffffffff9094166024820152604481019290925267ffffffffffffffff16606482015283926201000090049091169063c9fc7bcd90608401602060405180830381865afa1580156101c5573d6000803e3d6000fd5b505050506040513d601f19601f820116820180604052508101906101e991906108e9565b90508015801561029f5750600054845160208601516040516305b17bb760e41b81526001600160a01b03878116600483015263ffffffff90931660248201526044810191909152620100009092041690635b17bb7090606401602060405180830381865afa15801561025f573d6000803e3d6000fd5b505050506040513d601f19601f820116820180604052508101906102839190610902565b67ffffffffffffffff16846040015167ffffffffffffffff1611155b156102ae57600391505061039b565b600019811480159061036657506000548451602086015160405163283750ff60e21b81526001600160a01b03878116600483015263ffffffff9093166024820152604481019190915262010000909204169063a0dd43fc90606401602060405180830381865afa158015610326573d6000803e3d6000fd5b505050506040513d601f19601f8201168201806040525081019061034a9190610902565b67ffffffffffffffff16846040015167ffffffffffffffff1611155b1561037557600291505061039b565b801580159061038657506000198114155b1561039557600191505061039b565b60009150505b92915050565b6000805460405163861e1ca560e01b8152620100009091046001600160a01b03169063861e1ca5906103d9908690869060040161091f565b602060405180830381865afa1580156103f6573d6000803e3d6000fd5b505050506040513d601f19601f8201168201806040525081019061041a919061095e565b9392505050565b600061044b7fb53127684a568b3173ae13b9f8a6016e243e63b6e8ee1178d6a717850b5d61035490565b90506001600160a01b03811661048a576001600160a01b037fb53127684a568b3173ae13b9f8a6016e243e63b6e8ee1178d6a717850b5d61035561049f565b336001600160a01b0382161461049f57600080fd5b600054610100900460ff16158080156104bf5750600054600160ff909116105b806104d95750303b1580156104d9575060005460ff166001145b6105415760405162461bcd60e51b815260206004820152602e60248201527f496e697469616c697a61626c653a20636f6e747261637420697320616c72656160448201526d191e481a5b9a5d1a585b1a5e995960921b60648201526084015b60405180910390fd5b6000805460ff191660011790558015610564576000805461ff0019166101001790555b61056d836106ec565b80156105b3576000805461ff0019169055604051600181527f7f26b83ff96e1f2b6a682f133852f6798a09c465da95921460cefb38474024989060200160405180910390a15b505050565b600080548551604051639d7f977560e01b81526001600160a01b03878116600483015263ffffffff90921660248201528582166044820152620100009092041690639d7f977590606401602060405180830381865afa15801561061f573d6000803e3d6000fd5b505050506040513d601f19601f82011682018060405250810190610643919061095e565b61064f575060006106e4565b60005460405163c9a54a9960e01b8152620100009091046001600160a01b03169063c9a54a9990610686908890889060040161091f565b602060405180830381865afa1580156106a3573d6000803e3d6000fd5b505050506040513d601f19601f820116820180604052508101906106c7919061095e565b6106d3575060006106e4565b816106e0575060006106e4565b5060015b949350505050565b600054610100900460ff166107135760405162461bcd60e51b815260040161053890610980565b61071c8161071f565b50565b600054610100900460ff166107465760405162461bcd60e51b815260040161053890610980565b600080546001600160a01b03909216620100000262010000600160b01b0319909216919091179055565b67ffffffffffffffff8116811461071c57600080fd5b60006060828403121561079857600080fd5b6040516060810181811067ffffffffffffffff821117156107c957634e487b7160e01b600052604160045260246000fd5b604052905080823563ffffffff811681146107e357600080fd5b81526020838101359082015260408301356107fd81610770565b6040919091015292915050565b80356001600160a01b038116811461082157600080fd5b919050565b6000806080838503121561083957600080fd5b6108438484610786565b91506108516060840161080a565b90509250929050565b602081016004831061087c57634e487b7160e01b600052602160045260246000fd5b91905290565b60006020828403121561089457600080fd5b61041a8261080a565b60008060008060c085870312156108b357600080fd5b6108bd8686610786565b93506108cb6060860161080a565b92506108d96080860161080a565b9396929550929360a00135925050565b6000602082840312156108fb57600080fd5b5051919050565b60006020828403121561091457600080fd5b815161041a81610770565b825163ffffffff1681526020808401519082015260409283015167ffffffffffffffff16928101929092526001600160a01b0316606082015260800190565b60006020828403121561097057600080fd5b8151801515811461041a57600080fd5b6020808252602b908201527f496e697469616c697a61626c653a20636f6e7472616374206973206e6f74206960408201526a6e697469616c697a696e6760a81b60608201526080019056fea2646970667358221220367aa42266926ebba307d342544a4dcd9b7a7c360f6361c0f872485f63f798f164736f6c63430008180033",
        "linkReferences": {}
    },
    "methodIdentifiers": {
        "EMPTY_PAYLOAD_HASH()": "cb5026b9",
        "NIL_PAYLOAD_HASH()": "2baf0be7",
        "endpoint()": "5e280f11",
        "executable((uint32,bytes32,uint64),address)": "4b4b2efb",
        "initializable((uint32,bytes32,uint64),address)": "861e1ca5",
        "initialize(address)": "c4d66de8",
        "verifiable((uint32,bytes32,uint64),address,address,bytes32)": "e1e3a7df"
    },
    "id": 44
}