{
    "abi": [
        {
            "type": "constructor",
            "inputs": [
                {
                    "name": "_endpoint",
                    "type": "address",
                    "internalType": "address"
                }
            ],
            "stateMutability": "nonpayable"
        },
        {
            "type": "function",
            "name": "assertHeader",
            "inputs": [
                {
                    "name": "_packetHeader",
                    "type": "bytes",
                    "internalType": "bytes"
                },
                {
                    "name": "_localEid",
                    "type": "uint32",
                    "internalType": "uint32"
                }
            ],
            "outputs": [],
            "stateMutability": "pure"
        },
        {
            "type": "function",
            "name": "commitVerification",
            "inputs": [
                {
                    "name": "_packetHeader",
                    "type": "bytes",
                    "internalType": "bytes"
                },
                {
                    "name": "_payloadHash",
                    "type": "bytes32",
                    "internalType": "bytes32"
                }
            ],
            "outputs": [],
            "stateMutability": "nonpayable"
        },
        {
            "type": "function",
            "name": "getAppUlnConfig",
            "inputs": [
                {
                    "name": "_oapp",
                    "type": "address",
                    "internalType": "address"
                },
                {
                    "name": "_remoteEid",
                    "type": "uint32",
                    "internalType": "uint32"
                }
            ],
            "outputs": [
                {
                    "name": "",
                    "type": "tuple",
                    "internalType": "struct UlnConfig",
                    "components": [
                        {
                            "name": "confirmations",
                            "type": "uint64",
                            "internalType": "uint64"
                        },
                        {
                            "name": "requiredDVNCount",
                            "type": "uint8",
                            "internalType": "uint8"
                        },
                        {
                            "name": "optionalDVNCount",
                            "type": "uint8",
                            "internalType": "uint8"
                        },
                        {
                            "name": "optionalDVNThreshold",
                            "type": "uint8",
                            "internalType": "uint8"
                        },
                        {
                            "name": "requiredDVNs",
                            "type": "address[]",
                            "internalType": "address[]"
                        },
                        {
                            "name": "optionalDVNs",
                            "type": "address[]",
                            "internalType": "address[]"
                        }
                    ]
                }
            ],
            "stateMutability": "view"
        },
        {
            "type": "function",
            "name": "getConfig",
            "inputs": [
                {
                    "name": "_eid",
                    "type": "uint32",
                    "internalType": "uint32"
                },
                {
                    "name": "_oapp",
                    "type": "address",
                    "internalType": "address"
                },
                {
                    "name": "_configType",
                    "type": "uint32",
                    "internalType": "uint32"
                }
            ],
            "outputs": [
                {
                    "name": "",
                    "type": "bytes",
                    "internalType": "bytes"
                }
            ],
            "stateMutability": "view"
        },
        {
            "type": "function",
            "name": "getUlnConfig",
            "inputs": [
                {
                    "name": "_oapp",
                    "type": "address",
                    "internalType": "address"
                },
                {
                    "name": "_remoteEid",
                    "type": "uint32",
                    "internalType": "uint32"
                }
            ],
            "outputs": [
                {
                    "name": "rtnConfig",
                    "type": "tuple",
                    "internalType": "struct UlnConfig",
                    "components": [
                        {
                            "name": "confirmations",
                            "type": "uint64",
                            "internalType": "uint64"
                        },
                        {
                            "name": "requiredDVNCount",
                            "type": "uint8",
                            "internalType": "uint8"
                        },
                        {
                            "name": "optionalDVNCount",
                            "type": "uint8",
                            "internalType": "uint8"
                        },
                        {
                            "name": "optionalDVNThreshold",
                            "type": "uint8",
                            "internalType": "uint8"
                        },
                        {
                            "name": "requiredDVNs",
                            "type": "address[]",
                            "internalType": "address[]"
                        },
                        {
                            "name": "optionalDVNs",
                            "type": "address[]",
                            "internalType": "address[]"
                        }
                    ]
                }
            ],
            "stateMutability": "view"
        },
        {
            "type": "function",
            "name": "hashLookup",
            "inputs": [
                {
                    "name": "headerHash",
                    "type": "bytes32",
                    "internalType": "bytes32"
                },
                {
                    "name": "payloadHash",
                    "type": "bytes32",
                    "internalType": "bytes32"
                },
                {
                    "name": "dvn",
                    "type": "address",
                    "internalType": "address"
                }
            ],
            "outputs": [
                {
                    "name": "submitted",
                    "type": "bool",
                    "internalType": "bool"
                },
                {
                    "name": "confirmations",
                    "type": "uint64",
                    "internalType": "uint64"
                }
            ],
            "stateMutability": "view"
        },
        {
            "type": "function",
            "name": "isSupportedEid",
            "inputs": [
                {
                    "name": "_eid",
                    "type": "uint32",
                    "internalType": "uint32"
                }
            ],
            "outputs": [
                {
                    "name": "",
                    "type": "bool",
                    "internalType": "bool"
                }
            ],
            "stateMutability": "view"
        },
        {
            "type": "function",
            "name": "messageLibType",
            "inputs": [],
            "outputs": [
                {
                    "name": "",
                    "type": "uint8",
                    "internalType": "enum MessageLibType"
                }
            ],
            "stateMutability": "pure"
        },
        {
            "type": "function",
            "name": "owner",
            "inputs": [],
            "outputs": [
                {
                    "name": "",
                    "type": "address",
                    "internalType": "address"
                }
            ],
            "stateMutability": "view"
        },
        {
            "type": "function",
            "name": "renounceOwnership",
            "inputs": [],
            "outputs": [],
            "stateMutability": "nonpayable"
        },
        {
            "type": "function",
            "name": "setConfig",
            "inputs": [
                {
                    "name": "_oapp",
                    "type": "address",
                    "internalType": "address"
                },
                {
                    "name": "_params",
                    "type": "tuple[]",
                    "internalType": "struct SetConfigParam[]",
                    "components": [
                        {
                            "name": "eid",
                            "type": "uint32",
                            "internalType": "uint32"
                        },
                        {
                            "name": "configType",
                            "type": "uint32",
                            "internalType": "uint32"
                        },
                        {
                            "name": "config",
                            "type": "bytes",
                            "internalType": "bytes"
                        }
                    ]
                }
            ],
            "outputs": [],
            "stateMutability": "nonpayable"
        },
        {
            "type": "function",
            "name": "setDefaultUlnConfigs",
            "inputs": [
                {
                    "name": "_params",
                    "type": "tuple[]",
                    "internalType": "struct SetDefaultUlnConfigParam[]",
                    "components": [
                        {
                            "name": "eid",
                            "type": "uint32",
                            "internalType": "uint32"
                        },
                        {
                            "name": "config",
                            "type": "tuple",
                            "internalType": "struct UlnConfig",
                            "components": [
                                {
                                    "name": "confirmations",
                                    "type": "uint64",
                                    "internalType": "uint64"
                                },
                                {
                                    "name": "requiredDVNCount",
                                    "type": "uint8",
                                    "internalType": "uint8"
                                },
                                {
                                    "name": "optionalDVNCount",
                                    "type": "uint8",
                                    "internalType": "uint8"
                                },
                                {
                                    "name": "optionalDVNThreshold",
                                    "type": "uint8",
                                    "internalType": "uint8"
                                },
                                {
                                    "name": "requiredDVNs",
                                    "type": "address[]",
                                    "internalType": "address[]"
                                },
                                {
                                    "name": "optionalDVNs",
                                    "type": "address[]",
                                    "internalType": "address[]"
                                }
                            ]
                        }
                    ]
                }
            ],
            "outputs": [],
            "stateMutability": "nonpayable"
        },
        {
            "type": "function",
            "name": "supportsInterface",
            "inputs": [
                {
                    "name": "_interfaceId",
                    "type": "bytes4",
                    "internalType": "bytes4"
                }
            ],
            "outputs": [
                {
                    "name": "",
                    "type": "bool",
                    "internalType": "bool"
                }
            ],
            "stateMutability": "view"
        },
        {
            "type": "function",
            "name": "transferOwnership",
            "inputs": [
                {
                    "name": "newOwner",
                    "type": "address",
                    "internalType": "address"
                }
            ],
            "outputs": [],
            "stateMutability": "nonpayable"
        },
        {
            "type": "function",
            "name": "verifiable",
            "inputs": [
                {
                    "name": "_config",
                    "type": "tuple",
                    "internalType": "struct UlnConfig",
                    "components": [
                        {
                            "name": "confirmations",
                            "type": "uint64",
                            "internalType": "uint64"
                        },
                        {
                            "name": "requiredDVNCount",
                            "type": "uint8",
                            "internalType": "uint8"
                        },
                        {
                            "name": "optionalDVNCount",
                            "type": "uint8",
                            "internalType": "uint8"
                        },
                        {
                            "name": "optionalDVNThreshold",
                            "type": "uint8",
                            "internalType": "uint8"
                        },
                        {
                            "name": "requiredDVNs",
                            "type": "address[]",
                            "internalType": "address[]"
                        },
                        {
                            "name": "optionalDVNs",
                            "type": "address[]",
                            "internalType": "address[]"
                        }
                    ]
                },
                {
                    "name": "_headerHash",
                    "type": "bytes32",
                    "internalType": "bytes32"
                },
                {
                    "name": "_payloadHash",
                    "type": "bytes32",
                    "internalType": "bytes32"
                }
            ],
            "outputs": [
                {
                    "name": "",
                    "type": "bool",
                    "internalType": "bool"
                }
            ],
            "stateMutability": "view"
        },
        {
            "type": "function",
            "name": "verify",
            "inputs": [
                {
                    "name": "_packetHeader",
                    "type": "bytes",
                    "internalType": "bytes"
                },
                {
                    "name": "_payloadHash",
                    "type": "bytes32",
                    "internalType": "bytes32"
                },
                {
                    "name": "_confirmations",
                    "type": "uint64",
                    "internalType": "uint64"
                }
            ],
            "outputs": [],
            "stateMutability": "nonpayable"
        },
        {
            "type": "function",
            "name": "version",
            "inputs": [],
            "outputs": [
                {
                    "name": "major",
                    "type": "uint64",
                    "internalType": "uint64"
                },
                {
                    "name": "minor",
                    "type": "uint8",
                    "internalType": "uint8"
                },
                {
                    "name": "endpointVersion",
                    "type": "uint8",
                    "internalType": "uint8"
                }
            ],
            "stateMutability": "pure"
        },
        {
            "type": "event",
            "name": "DefaultUlnConfigsSet",
            "inputs": [
                {
                    "name": "params",
                    "type": "tuple[]",
                    "indexed": false,
                    "internalType": "struct SetDefaultUlnConfigParam[]",
                    "components": [
                        {
                            "name": "eid",
                            "type": "uint32",
                            "internalType": "uint32"
                        },
                        {
                            "name": "config",
                            "type": "tuple",
                            "internalType": "struct UlnConfig",
                            "components": [
                                {
                                    "name": "confirmations",
                                    "type": "uint64",
                                    "internalType": "uint64"
                                },
                                {
                                    "name": "requiredDVNCount",
                                    "type": "uint8",
                                    "internalType": "uint8"
                                },
                                {
                                    "name": "optionalDVNCount",
                                    "type": "uint8",
                                    "internalType": "uint8"
                                },
                                {
                                    "name": "optionalDVNThreshold",
                                    "type": "uint8",
                                    "internalType": "uint8"
                                },
                                {
                                    "name": "requiredDVNs",
                                    "type": "address[]",
                                    "internalType": "address[]"
                                },
                                {
                                    "name": "optionalDVNs",
                                    "type": "address[]",
                                    "internalType": "address[]"
                                }
                            ]
                        }
                    ]
                }
            ],
            "anonymous": false
        },
        {
            "type": "event",
            "name": "OwnershipTransferred",
            "inputs": [
                {
                    "name": "previousOwner",
                    "type": "address",
                    "indexed": true,
                    "internalType": "address"
                },
                {
                    "name": "newOwner",
                    "type": "address",
                    "indexed": true,
                    "internalType": "address"
                }
            ],
            "anonymous": false
        },
        {
            "type": "event",
            "name": "PayloadVerified",
            "inputs": [
                {
                    "name": "dvn",
                    "type": "address",
                    "indexed": false,
                    "internalType": "address"
                },
                {
                    "name": "header",
                    "type": "bytes",
                    "indexed": false,
                    "internalType": "bytes"
                },
                {
                    "name": "confirmations",
                    "type": "uint256",
                    "indexed": false,
                    "internalType": "uint256"
                },
                {
                    "name": "proofHash",
                    "type": "bytes32",
                    "indexed": false,
                    "internalType": "bytes32"
                }
            ],
            "anonymous": false
        },
        {
            "type": "event",
            "name": "UlnConfigSet",
            "inputs": [
                {
                    "name": "oapp",
                    "type": "address",
                    "indexed": false,
                    "internalType": "address"
                },
                {
                    "name": "eid",
                    "type": "uint32",
                    "indexed": false,
                    "internalType": "uint32"
                },
                {
                    "name": "config",
                    "type": "tuple",
                    "indexed": false,
                    "internalType": "struct UlnConfig",
                    "components": [
                        {
                            "name": "confirmations",
                            "type": "uint64",
                            "internalType": "uint64"
                        },
                        {
                            "name": "requiredDVNCount",
                            "type": "uint8",
                            "internalType": "uint8"
                        },
                        {
                            "name": "optionalDVNCount",
                            "type": "uint8",
                            "internalType": "uint8"
                        },
                        {
                            "name": "optionalDVNThreshold",
                            "type": "uint8",
                            "internalType": "uint8"
                        },
                        {
                            "name": "requiredDVNs",
                            "type": "address[]",
                            "internalType": "address[]"
                        },
                        {
                            "name": "optionalDVNs",
                            "type": "address[]",
                            "internalType": "address[]"
                        }
                    ]
                }
            ],
            "anonymous": false
        },
        {
            "type": "error",
            "name": "LZ_MessageLib_OnlyEndpoint",
            "inputs": []
        },
        {
            "type": "error",
            "name": "LZ_ULN_AtLeastOneDVN",
            "inputs": []
        },
        {
            "type": "error",
            "name": "LZ_ULN_InvalidConfigType",
            "inputs": [
                {
                    "name": "configType",
                    "type": "uint32",
                    "internalType": "uint32"
                }
            ]
        },
        {
            "type": "error",
            "name": "LZ_ULN_InvalidConfirmations",
            "inputs": []
        },
        {
            "type": "error",
            "name": "LZ_ULN_InvalidEid",
            "inputs": []
        },
        {
            "type": "error",
            "name": "LZ_ULN_InvalidOptionalDVNCount",
            "inputs": []
        },
        {
            "type": "error",
            "name": "LZ_ULN_InvalidOptionalDVNThreshold",
            "inputs": []
        },
        {
            "type": "error",
            "name": "LZ_ULN_InvalidPacketHeader",
            "inputs": []
        },
        {
            "type": "error",
            "name": "LZ_ULN_InvalidPacketVersion",
            "inputs": []
        },
        {
            "type": "error",
            "name": "LZ_ULN_InvalidRequiredDVNCount",
            "inputs": []
        },
        {
            "type": "error",
            "name": "LZ_ULN_Unsorted",
            "inputs": []
        },
        {
            "type": "error",
            "name": "LZ_ULN_UnsupportedEid",
            "inputs": [
                {
                    "name": "eid",
                    "type": "uint32",
                    "internalType": "uint32"
                }
            ]
        },
        {
            "type": "error",
            "name": "LZ_ULN_Verifying",
            "inputs": []
        }
    ],
    "bytecode": {
        "object": "0x60c06040523480156200001157600080fd5b5060405162002e1838038062002e18833981016040819052620000349162000116565b8080816001600160a01b031663416ecebf6040518163ffffffff1660e01b8152600401602060405180830381865afa15801562000075573d6000803e3d6000fd5b505050506040513d601f19601f820116820180604052508101906200009b919062000148565b620000a633620000c6565b6001600160a01b0390911660805263ffffffff1660a05250620001709050565b600080546001600160a01b038381166001600160a01b0319831681178455604051919092169283917f8be0079c531659141344cd1fd0a4f28419497f9722a3daafe3b4186f6b6457e09190a35050565b6000602082840312156200012957600080fd5b81516001600160a01b03811681146200014157600080fd5b9392505050565b6000602082840312156200015b57600080fd5b815163ffffffff811681146200014157600080fd5b60805160a051612c7b6200019d600039600061036e01526000818161049201526104fb0152612c7b6000f3fe608060405234801561001057600080fd5b506004361061011b5760003560e01c806343ea4fa9116100b25780638da5cb5b11610081578063c40ff83511610066578063c40ff835146102c0578063e084d952146102d3578063f2fde38b146102e657600080fd5b80638da5cb5b146102785780639c33abf7146102a057600080fd5b806343ea4fa91461022a57806354fd4d501461023d5780636750cd4c1461025d578063715018a61461027057600080fd5b806320efd722116100ee57806320efd7221461017f57806329460b0b1461019257806339e3f938146101a55780633c782a52146101c557600080fd5b806301ffc9a7146101205780630223536e146101485780630894edf11461015d5780631881d94d14610170575b600080fd5b61013361012e366004611e0d565b6102f9565b60405190151581526020015b60405180910390f35b61015b610156366004611eb5565b610355565b005b61015b61016b366004611f12565b610367565b600160405161013f9190611f5e565b61015b61018d366004612008565b6104f9565b61015b6101a036600461205b565b61065a565b6101b86101b33660046120b1565b61083f565b60405161013f91906121a8565b61020a6101d33660046121bb565b600260209081526000938452604080852082529284528284209052825290205460ff811690610100900467ffffffffffffffff1682565b60408051921515835267ffffffffffffffff90911660208301520161013f565b6101b86102383660046120b1565b6109e0565b60408051600381526000602082015260029181019190915260600161013f565b61013361026b3660046121f0565b610d9a565b61015b610da5565b60005460405173ffffffffffffffffffffffffffffffffffffffff909116815260200161013f565b6102b36102ae36600461220b565b610db9565b60405161013f91906122a9565b61015b6102ce3660046122bc565b610e59565b6101336102e13660046124e6565b610e69565b61015b6102f4366004612534565b610e7e565b60007fffffffff0000000000000000000000000000000000000000000000000000000082167f0ab7be9f00000000000000000000000000000000000000000000000000000000148061034f575061034f82610f35565b92915050565b61036184848484610fcc565b50505050565b61039283837f00000000000000000000000000000000000000000000000000000000000000006110e0565b600061039e8484611241565b905060006103ac8585611253565b905060006103ba83836109e0565b90506103de8187876040516103d092919061254f565b604051809103902086611276565b600060405180606001604052808463ffffffff1681526020016104018989611425565b8152602001610410898961143e565b67ffffffffffffffff908116909152604080517fa825d747000000000000000000000000000000000000000000000000000000008152835163ffffffff1660048201526020840151602482015290830151909116604482015273ffffffffffffffffffffffffffffffffffffffff8681166064830152608482018890529192507f00000000000000000000000000000000000000000000000000000000000000009091169063a825d7479060a401600060405180830381600087803b1580156104d857600080fd5b505af11580156104ec573d6000803e3d6000fd5b5050505050505050505050565b7f000000000000000000000000000000000000000000000000000000000000000073ffffffffffffffffffffffffffffffffffffffff163314610568576040517f467409c300000000000000000000000000000000000000000000000000000000815260040160405180910390fd5b60005b8181101561036157368383838181106105865761058661255f565b9050602002810190610598919061258e565b90506105af6105aa60208301836121f0565b611461565b60026105c160408301602084016121f0565b63ffffffff1603610601576105fc6105dc60208301836121f0565b866105ea60408501856125cc565b8101906105f79190612631565b6114a8565b610651565b61061160408201602083016121f0565b6040517fba97c1fa00000000000000000000000000000000000000000000000000000000815263ffffffff90911660048201526024015b60405180910390fd5b5060010161056b565b6106626114fe565b60005b8181101561080157368383838181106106805761068061255f565b90506020028101906106929190612666565b905060ff6106a3602083018361269a565b6106b49060408101906020016126ce565b60ff16036106ee576040517f83aa17da00000000000000000000000000000000000000000000000000000000815260040160405180910390fd5b60ff6106fd602083018361269a565b61070e9060608101906040016126ce565b60ff1603610748576040517f4221136600000000000000000000000000000000000000000000000000000000815260040160405180910390fd5b67ffffffffffffffff61075e602083018361269a565b61076c9060208101906126e9565b67ffffffffffffffff16036107ad576040517f503667ae00000000000000000000000000000000000000000000000000000000815260040160405180910390fd5b6107cb6107bd602083018361269a565b6107c690612704565b61157f565b6107f860006107dd60208401846121f0565b6107ea602085018561269a565b6107f390612704565b6115d0565b50600101610665565b507faaf3aaa0c11056e86ac56eb653e25b005ca1a7d4dcd21ba24647f7ab63f3b56082826040516108339291906127c0565b60405180910390a15050565b6040805160c0810182526000808252602082018190529181018290526060808201929092526080810182905260a081019190915273ffffffffffffffffffffffffffffffffffffffff8316600090815260016020818152604080842063ffffffff87168552825292839020835160c081018552815467ffffffffffffffff8116825260ff680100000000000000008204811683860152690100000000000000000082048116838801526a0100000000000000000000909104166060820152928101805485518185028101850190965280865293949193608086019383018282801561096057602002820191906000526020600020905b815473ffffffffffffffffffffffffffffffffffffffff168152600190910190602001808311610935575b50505050508152602001600282018054806020026020016040519081016040528092919081815260200182805480156109cf57602002820191906000526020600020905b815473ffffffffffffffffffffffffffffffffffffffff1681526001909101906020018083116109a4575b505050505081525050905092915050565b6040805160c0810182526000808252602080830182905282840182905260608084018390526080840181905260a084015263ffffffff85168083527fa6eef7e35abe7026729641147f7915573c7e97b47efa546f5f6e3230263bcb49825284832073ffffffffffffffffffffffffffffffffffffffff88168452600183528584209184529152929020805491929167ffffffffffffffff1680610a9057825467ffffffffffffffff168452610aaf565b67ffffffffffffffff81811614610aaf5767ffffffffffffffff811684525b815468010000000000000000900460ff16610b6557825468010000000000000000900460ff1615610b605782600101805480602002602001604051908101604052809291908181526020018280548015610b3f57602002820191906000526020600020905b815473ffffffffffffffffffffffffffffffffffffffff168152600190910190602001808311610b14575b50505050506080850152825468010000000000000000900460ff1660208501525b610c03565b815468010000000000000000900460ff90811614610c035781600101805480602002602001604051908101604052809291908181526020018280548015610be257602002820191906000526020600020905b815473ffffffffffffffffffffffffffffffffffffffff168152600190910190602001808311610bb7575b50505050506080850152815468010000000000000000900460ff1660208501525b81546901000000000000000000900460ff16610cd25782546901000000000000000000900460ff1615610ccd5782600201805480602002602001604051908101604052809291908181526020018280548015610c9557602002820191906000526020600020905b815473ffffffffffffffffffffffffffffffffffffffff168152600190910190602001808311610c6a575b505050505060a0850152825460ff69010000000000000000008204811660408701526a01000000000000000000009091041660608501525b610d88565b81546901000000000000000000900460ff90811614610d885781600201805480602002602001604051908101604052809291908181526020018280548015610d5057602002820191906000526020600020905b815473ffffffffffffffffffffffffffffffffffffffff168152600190910190602001808311610d25575b505050505060a0850152815460ff69010000000000000000008204811660408701526a01000000000000000000009091041660608501525b610d918461157f565b50505092915050565b600061034f82611964565b610dad6114fe565b610db760006119cb565b565b60607ffffffffffffffffffffffffffffffffffffffffffffffffffffffffffffffffe63ffffffff831601610e1857610df283856109e0565b604051602001610e0291906121a8565b6040516020818303038152906040529050610e52565b6040517fba97c1fa00000000000000000000000000000000000000000000000000000000815263ffffffff83166004820152602401610648565b9392505050565b610e648383836110e0565b505050565b6000610e76848484611a40565b949350505050565b610e866114fe565b73ffffffffffffffffffffffffffffffffffffffff8116610f29576040517f08c379a000000000000000000000000000000000000000000000000000000000815260206004820152602660248201527f4f776e61626c653a206e6577206f776e657220697320746865207a65726f206160448201527f64647265737300000000000000000000000000000000000000000000000000006064820152608401610648565b610f32816119cb565b50565b60007fffffffff0000000000000000000000000000000000000000000000000000000082167f97f0258400000000000000000000000000000000000000000000000000000000148061034f57507f01ffc9a7000000000000000000000000000000000000000000000000000000007fffffffff0000000000000000000000000000000000000000000000000000000083161461034f565b6040805180820182526001815267ffffffffffffffff831660208201529051600290600090610ffe908890889061254f565b6040805191829003909120825260208083019390935290810160009081208682528352818120338083529084529082902084518154959094015167ffffffffffffffff16610100027fffffffffffffffffffffffffffffffffffffffffffffff0000000000000000ff941515949094167fffffffffffffffffffffffffffffffffffffffffffffff000000000000000000909516949094179290921790925590517f2cb0eed7538baeae4c6fde038c0fd0384d27de0dd55a228c65847bda6aa1ab56916110d291879087908690889061295d565b60405180910390a150505050565b6051821461111a576040517fc9bf37b700000000000000000000000000000000000000000000000000000000815260040160405180910390fd5b60016111268484611b49565b60ff1614611160576040517f3a9ae7b900000000000000000000000000000000000000000000000000000000815260040160405180910390fd5b6111ae6040518060400160405280601881526020017f5f7061636b65744865616465722e64737445696428293a2000000000000000008152506111a38585611b6b565b63ffffffff16611b7b565b6111f36040518060400160405280600b81526020017f5f6c6f63616c4569643a200000000000000000000000000000000000000000008152508263ffffffff16611b7b565b8063ffffffff166112048484611b6b565b63ffffffff1614610e64576040517f42d2c97e00000000000000000000000000000000000000000000000000000000815260040160405180910390fd5b6000610e526112508484611c10565b90565b6000611263600d600984866129e2565b61126c91612a0c565b60e01c9392505050565b611281838383611a40565b6112b7576040517f4c3118d400000000000000000000000000000000000000000000000000000000815260040160405180910390fd5b602083015160ff161561136f5760005b836020015160ff168160ff16101561136d57600083815260026020908152604080832085845290915281206080860151805191929160ff851690811061130f5761130f61255f565b60209081029190910181015173ffffffffffffffffffffffffffffffffffffffff16825281019190915260400160002080547fffffffffffffffffffffffffffffffffffffffffffffff0000000000000000001690556001016112c7565b505b604083015160ff1615610e645760005b836040015160ff168160ff161015610361576000838152600260209081526040808320858452909152812060a0860151805191929160ff85169081106113c7576113c761255f565b60209081029190910181015173ffffffffffffffffffffffffffffffffffffffff16825281019190915260400160002080547fffffffffffffffffffffffffffffffffffffffffffffff00000000000000000016905560010161137f565b6000611435602d600d84866129e2565b610e5291612a54565b600061144e6009600184866129e2565b61145791612a90565b60c01c9392505050565b61146a81611964565b610f32576040517ff0c10d0400000000000000000000000000000000000000000000000000000000815263ffffffff82166004820152602401610648565b6114b38284836115d0565b6114bd82846109e0565b507f82118522aa536ac0e96cc5c689407ae42b89d592aa133890a01f1509842f50818284836040516114f193929190612ad6565b60405180910390a1505050565b60005473ffffffffffffffffffffffffffffffffffffffff163314610db7576040517f08c379a000000000000000000000000000000000000000000000000000000000815260206004820181905260248201527f4f776e61626c653a2063616c6c6572206973206e6f7420746865206f776e65726044820152606401610648565b602081015160ff161580156115995750606081015160ff16155b15610f32576040517fce2c375100000000000000000000000000000000000000000000000000000000815260040160405180910390fd5b602081015160ff90811614806115eb5750602081015160ff16155b15611632576080810151511561162d576040517f83aa17da00000000000000000000000000000000000000000000000000000000815260040160405180910390fd5b6116b1565b806020015160ff1681608001515114158061166d57506002611656600160ff612b40565b6116609190612b59565b60ff16816020015160ff16115b156116a4576040517f83aa17da00000000000000000000000000000000000000000000000000000000815260040160405180910390fd5b6116b18160800151611c20565b604081015160ff90811614806116cc5750604081015160ff16155b156117525760a0810151511561170e576040517f4221136600000000000000000000000000000000000000000000000000000000815260040160405180910390fd5b606081015160ff161561174d576040517f38682fa900000000000000000000000000000000000000000000000000000000815260040160405180910390fd5b611829565b806040015160ff168160a001515114158061178d57506002611776600160ff612b40565b6117809190612b59565b60ff16816040015160ff16115b156117c4576040517f4221136600000000000000000000000000000000000000000000000000000000815260040160405180910390fd5b606081015160ff1615806117e55750806040015160ff16816060015160ff16115b1561181c576040517f38682fa900000000000000000000000000000000000000000000000000000000815260040160405180910390fd5b6118298160a00151611c20565b73ffffffffffffffffffffffffffffffffffffffff8316600090815260016020818152604080842063ffffffff87168552825292839020845181548684015195870151606088015167ffffffffffffffff9093167fffffffffffffffffffffffffffffffffffffffffffffff000000000000000000909216919091176801000000000000000060ff97881602177fffffffffffffffffffffffffffffffffffffffffff0000ffffffffffffffffff166901000000000000000000918716919091027fffffffffffffffffffffffffffffffffffffffffff00ffffffffffffffffffff16176a010000000000000000000095909116949094029390931783556080840151805185949361194093908501920190611d6e565b5060a0820151805161195c916002840191602090910190611d6e565b505050505050565b63ffffffff811660009081527fa6eef7e35abe7026729641147f7915573c7e97b47efa546f5f6e3230263bcb4960205260408120805468010000000000000000900460ff16151580610e525750546a0100000000000000000000900460ff16151592915050565b6000805473ffffffffffffffffffffffffffffffffffffffff8381167fffffffffffffffffffffffff0000000000000000000000000000000000000000831681178455604051919092169283917f8be0079c531659141344cd1fd0a4f28419497f9722a3daafe3b4186f6b6457e09190a35050565b602083015160009060ff1615611ac35760005b846020015160ff168160ff161015611aab57611a9585608001518260ff1681518110611a8157611a8161255f565b602002602001015185858860000151611cba565b611aa3576000915050610e52565b600101611a53565b50836040015160ff16600003611ac357506001610e52565b606084015160005b856040015160ff168160ff161015611b3d57611b0d8660a001518260ff1681518110611af957611af961255f565b602002602001015186868960000151611cba565b15611b355781611b1c81612ba2565b9250508160ff16600003611b3557600192505050610e52565b600101611acb565b50600095945050505050565b6000611b5860018284866129e2565b611b6191612bdd565b60f81c9392505050565b60006112636031602d84866129e2565b611c0c8282604051602401611b91929190612c23565b604080517fffffffffffffffffffffffffffffffffffffffffffffffffffffffffffffffe08184030181529190526020810180517bffffffffffffffffffffffffffffffffffffffffffffffffffffffff167fb60e72cc00000000000000000000000000000000000000000000000000000000179052611d49565b5050565b60006114356051603184866129e2565b6000805b8251811015610e64576000838281518110611c4157611c4161255f565b602002602001015190508273ffffffffffffffffffffffffffffffffffffffff168173ffffffffffffffffffffffffffffffffffffffff1611611cb0576040517f447516e100000000000000000000000000000000000000000000000000000000815260040160405180910390fd5b9150600101611c24565b6000838152600260209081526040808320858452825280832073ffffffffffffffffffffffffffffffffffffffff88168452825280832081518083019092525460ff811615801580845261010090920467ffffffffffffffff16938301939093529091611d3f57508267ffffffffffffffff16816020015167ffffffffffffffff1610155b9695505050505050565b610f328180516a636f6e736f6c652e6c6f67602083016000808483855afa5050505050565b828054828255906000526020600020908101928215611de8579160200282015b82811115611de857825182547fffffffffffffffffffffffff00000000000000000000000000000000000000001673ffffffffffffffffffffffffffffffffffffffff909116178255602090920191600190910190611d8e565b50611df4929150611df8565b5090565b5b80821115611df45760008155600101611df9565b600060208284031215611e1f57600080fd5b81357fffffffff0000000000000000000000000000000000000000000000000000000081168114610e5257600080fd5b60008083601f840112611e6157600080fd5b50813567ffffffffffffffff811115611e7957600080fd5b602083019150836020828501011115611e9157600080fd5b9250929050565b803567ffffffffffffffff81168114611eb057600080fd5b919050565b60008060008060608587031215611ecb57600080fd5b843567ffffffffffffffff811115611ee257600080fd5b611eee87828801611e4f565b90955093505060208501359150611f0760408601611e98565b905092959194509250565b600080600060408486031215611f2757600080fd5b833567ffffffffffffffff811115611f3e57600080fd5b611f4a86828701611e4f565b909790965060209590950135949350505050565b6020810160038310611f99577f4e487b7100000000000000000000000000000000000000000000000000000000600052602160045260246000fd5b91905290565b803573ffffffffffffffffffffffffffffffffffffffff81168114611eb057600080fd5b60008083601f840112611fd557600080fd5b50813567ffffffffffffffff811115611fed57600080fd5b6020830191508360208260051b8501011115611e9157600080fd5b60008060006040848603121561201d57600080fd5b61202684611f9f565b9250602084013567ffffffffffffffff81111561204257600080fd5b61204e86828701611fc3565b9497909650939450505050565b6000806020838503121561206e57600080fd5b823567ffffffffffffffff81111561208557600080fd5b61209185828601611fc3565b90969095509350505050565b803563ffffffff81168114611eb057600080fd5b600080604083850312156120c457600080fd5b6120cd83611f9f565b91506120db6020840161209d565b90509250929050565b60008151808452602080850194506020840160005b8381101561212b57815173ffffffffffffffffffffffffffffffffffffffff16875295820195908201906001016120f9565b509495945050505050565b67ffffffffffffffff815116825260ff602082015116602083015260ff604082015116604083015260ff60608201511660608301526000608082015160c0608085015261218660c08501826120e4565b905060a083015184820360a086015261219f82826120e4565b95945050505050565b602081526000610e526020830184612136565b6000806000606084860312156121d057600080fd5b83359250602084013591506121e760408501611f9f565b90509250925092565b60006020828403121561220257600080fd5b610e528261209d565b60008060006060848603121561222057600080fd5b6122298461209d565b925061223760208501611f9f565b91506121e76040850161209d565b6000815180845260005b8181101561226b5760208185018101518683018201520161224f565b5060006020828601015260207fffffffffffffffffffffffffffffffffffffffffffffffffffffffffffffffe0601f83011685010191505092915050565b602081526000610e526020830184612245565b6000806000604084860312156122d157600080fd5b833567ffffffffffffffff8111156122e857600080fd5b6122f486828701611e4f565b90945092506121e790506020850161209d565b7f4e487b7100000000000000000000000000000000000000000000000000000000600052604160045260246000fd5b60405160c0810167ffffffffffffffff8111828210171561235957612359612307565b60405290565b803560ff81168114611eb057600080fd5b600082601f83011261238157600080fd5b8135602067ffffffffffffffff8083111561239e5761239e612307565b8260051b6040517fffffffffffffffffffffffffffffffffffffffffffffffffffffffffffffffe0603f830116810181811084821117156123e1576123e1612307565b604052938452602081870181019490810192508785111561240157600080fd5b6020870191505b848210156124285761241982611f9f565b83529183019190830190612408565b979650505050505050565b600060c0828403121561244557600080fd5b61244d612336565b905061245882611e98565b81526124666020830161235f565b60208201526124776040830161235f565b60408201526124886060830161235f565b6060820152608082013567ffffffffffffffff808211156124a857600080fd5b6124b485838601612370565b608084015260a08401359150808211156124cd57600080fd5b506124da84828501612370565b60a08301525092915050565b6000806000606084860312156124fb57600080fd5b833567ffffffffffffffff81111561251257600080fd5b61251e86828701612433565b9660208601359650604090950135949350505050565b60006020828403121561254657600080fd5b610e5282611f9f565b8183823760009101908152919050565b7f4e487b7100000000000000000000000000000000000000000000000000000000600052603260045260246000fd5b600082357fffffffffffffffffffffffffffffffffffffffffffffffffffffffffffffffa18336030181126125c257600080fd5b9190910192915050565b60008083357fffffffffffffffffffffffffffffffffffffffffffffffffffffffffffffffe184360301811261260157600080fd5b83018035915067ffffffffffffffff82111561261c57600080fd5b602001915036819003821315611e9157600080fd5b60006020828403121561264357600080fd5b813567ffffffffffffffff81111561265a57600080fd5b610e7684828501612433565b600082357fffffffffffffffffffffffffffffffffffffffffffffffffffffffffffffffc18336030181126125c257600080fd5b600082357fffffffffffffffffffffffffffffffffffffffffffffffffffffffffffffff418336030181126125c257600080fd5b6000602082840312156126e057600080fd5b610e528261235f565b6000602082840312156126fb57600080fd5b610e5282611e98565b600061034f3683612433565b60008083357fffffffffffffffffffffffffffffffffffffffffffffffffffffffffffffffe184360301811261274557600080fd5b830160208101925035905067ffffffffffffffff81111561276557600080fd5b8060051b3603821315611e9157600080fd5b8183526000602080850194508260005b8581101561212b5773ffffffffffffffffffffffffffffffffffffffff6127ad83611f9f565b1687529582019590820190600101612787565b60208082528181018390526000906040808401600586901b8501820187855b8881101561294f577fffffffffffffffffffffffffffffffffffffffffffffffffffffffffffffffc08089850301855282357fffffffffffffffffffffffffffffffffffffffffffffffffffffffffffffffc18c360301811261284157600080fd5b8b0163ffffffff6128518261209d565b168552878101357fffffffffffffffffffffffffffffffffffffffffffffffffffffffffffffff4182360301811261288857600080fd5b8589018890520167ffffffffffffffff6128a182611e98565b16878601526128b188820161235f565b606060ff808316828901526128c78a850161235f565b92506080818416818a01526128dd83860161235f565b935060a09250818416838a01526128f681860186612710565b60c08b81015294509150612911905061010089018483612777565b92505061292081840184612710565b93509050838783030160e0880152612939828483612777565b978a0197965050509287019250506001016127df565b509098975050505050505050565b73ffffffffffffffffffffffffffffffffffffffff8616815260806020820152836080820152838560a0830137600060a08583010152600060a07fffffffffffffffffffffffffffffffffffffffffffffffffffffffffffffffe0601f870116830101905067ffffffffffffffff841660408301528260608301529695505050505050565b600080858511156129f257600080fd5b838611156129ff57600080fd5b5050820193919092039150565b7fffffffff000000000000000000000000000000000000000000000000000000008135818116916004851015612a4c5780818660040360031b1b83161692505b505092915050565b8035602083101561034f577fffffffffffffffffffffffffffffffffffffffffffffffffffffffffffffffff602084900360031b1b1692915050565b7fffffffffffffffff0000000000000000000000000000000000000000000000008135818116916008851015612a4c5760089490940360031b84901b1690921692915050565b73ffffffffffffffffffffffffffffffffffffffff8416815263ffffffff8316602082015260606040820152600061219f6060830184612136565b7f4e487b7100000000000000000000000000000000000000000000000000000000600052601160045260246000fd5b60ff828116828216039081111561034f5761034f612b11565b600060ff831680612b93577f4e487b7100000000000000000000000000000000000000000000000000000000600052601260045260246000fd5b8060ff84160491505092915050565b600060ff821680612bb557612bb5612b11565b7fffffffffffffffffffffffffffffffffffffffffffffffffffffffffffffffff0192915050565b7fff000000000000000000000000000000000000000000000000000000000000008135818116916001851015612a4c5760019490940360031b84901b1690921692915050565b604081526000612c366040830185612245565b9050826020830152939250505056fea2646970667358221220a4a776afb7e8baa9303f6ca9c74351f999b977cdff3b241b43ab058a790a1c9164736f6c63430008180033",
        "linkReferences": {}
    },
    "methodIdentifiers": {
        "assertHeader(bytes,uint32)": "c40ff835",
        "commitVerification(bytes,bytes32)": "0894edf1",
        "getAppUlnConfig(address,uint32)": "39e3f938",
        "getConfig(uint32,address,uint32)": "9c33abf7",
        "getUlnConfig(address,uint32)": "43ea4fa9",
        "hashLookup(bytes32,bytes32,address)": "3c782a52",
        "isSupportedEid(uint32)": "6750cd4c",
        "messageLibType()": "1881d94d",
        "owner()": "8da5cb5b",
        "renounceOwnership()": "715018a6",
        "setConfig(address,(uint32,uint32,bytes)[])": "20efd722",
        "setDefaultUlnConfigs((uint32,(uint64,uint8,uint8,uint8,address[],address[]))[])": "29460b0b",
        "supportsInterface(bytes4)": "01ffc9a7",
        "transferOwnership(address)": "f2fde38b",
        "verifiable((uint64,uint8,uint8,uint8,address[],address[]),bytes32,bytes32)": "e084d952",
        "verify(bytes,bytes32,uint64)": "0223536e",
        "version()": "54fd4d50"
    },
    "id": 60
}