{
    "abi": [
        {
            "type": "constructor",
            "inputs": [
                {
                    "name": "_name",
                    "type": "string",
                    "internalType": "string"
                },
                {
                    "name": "_symbol",
                    "type": "string",
                    "internalType": "string"
                },
                {
                    "name": "_layerZeroEndpoint",
                    "type": "address",
                    "internalType": "address"
                },
                {
                    "name": "_owner",
                    "type": "address",
                    "internalType": "address"
                }
            ],
            "stateMutability": "nonpayable"
        },
        {
            "type": "receive",
            "stateMutability": "payable"
        },
        {
            "type": "function",
            "name": "SEND",
            "inputs": [],
            "outputs": [
                {
                    "name": "",
                    "type": "uint16",
                    "internalType": "uint16"
                }
            ],
            "stateMutability": "view"
        },
        {
            "type": "function",
            "name": "SEND_AND_CALL",
            "inputs": [],
            "outputs": [
                {
                    "name": "",
                    "type": "uint16",
                    "internalType": "uint16"
                }
            ],
            "stateMutability": "view"
        },
        {
            "type": "function",
            "name": "allowInitializePath",
            "inputs": [
                {
                    "name": "origin",
                    "type": "tuple",
                    "internalType": "struct Origin",
                    "components": [
                        {
                            "name": "srcEid",
                            "type": "uint32",
                            "internalType": "uint32"
                        },
                        {
                            "name": "sender",
                            "type": "bytes32",
                            "internalType": "bytes32"
                        },
                        {
                            "name": "nonce",
                            "type": "uint64",
                            "internalType": "uint64"
                        }
                    ]
                }
            ],
            "outputs": [
                {
                    "name": "",
                    "type": "bool",
                    "internalType": "bool"
                }
            ],
            "stateMutability": "view"
        },
        {
            "type": "function",
            "name": "allowance",
            "inputs": [
                {
                    "name": "owner",
                    "type": "address",
                    "internalType": "address"
                },
                {
                    "name": "spender",
                    "type": "address",
                    "internalType": "address"
                }
            ],
            "outputs": [
                {
                    "name": "",
                    "type": "uint256",
                    "internalType": "uint256"
                }
            ],
            "stateMutability": "view"
        },
        {
            "type": "function",
            "name": "approvalRequired",
            "inputs": [],
            "outputs": [
                {
                    "name": "",
                    "type": "bool",
                    "internalType": "bool"
                }
            ],
            "stateMutability": "pure"
        },
        {
            "type": "function",
            "name": "approve",
            "inputs": [
                {
                    "name": "spender",
                    "type": "address",
                    "internalType": "address"
                },
                {
                    "name": "amount",
                    "type": "uint256",
                    "internalType": "uint256"
                }
            ],
            "outputs": [
                {
                    "name": "",
                    "type": "bool",
                    "internalType": "bool"
                }
            ],
            "stateMutability": "nonpayable"
        },
        {
            "type": "function",
            "name": "balanceOf",
            "inputs": [
                {
                    "name": "account",
                    "type": "address",
                    "internalType": "address"
                }
            ],
            "outputs": [
                {
                    "name": "",
                    "type": "uint256",
                    "internalType": "uint256"
                }
            ],
            "stateMutability": "view"
        },
        {
            "type": "function",
            "name": "combineOptions",
            "inputs": [
                {
                    "name": "_eid",
                    "type": "uint32",
                    "internalType": "uint32"
                },
                {
                    "name": "_msgType",
                    "type": "uint16",
                    "internalType": "uint16"
                },
                {
                    "name": "_extraOptions",
                    "type": "bytes",
                    "internalType": "bytes"
                }
            ],
            "outputs": [
                {
                    "name": "",
                    "type": "bytes",
                    "internalType": "bytes"
                }
            ],
            "stateMutability": "view"
        },
        {
            "type": "function",
            "name": "composeMsgSender",
            "inputs": [],
            "outputs": [
                {
                    "name": "sender",
                    "type": "address",
                    "internalType": "address"
                }
            ],
            "stateMutability": "view"
        },
        {
            "type": "function",
            "name": "decimalConversionRate",
            "inputs": [],
            "outputs": [
                {
                    "name": "",
                    "type": "uint256",
                    "internalType": "uint256"
                }
            ],
            "stateMutability": "view"
        },
        {
            "type": "function",
            "name": "decimals",
            "inputs": [],
            "outputs": [
                {
                    "name": "",
                    "type": "uint8",
                    "internalType": "uint8"
                }
            ],
            "stateMutability": "view"
        },
        {
            "type": "function",
            "name": "decreaseAllowance",
            "inputs": [
                {
                    "name": "spender",
                    "type": "address",
                    "internalType": "address"
                },
                {
                    "name": "subtractedValue",
                    "type": "uint256",
                    "internalType": "uint256"
                }
            ],
            "outputs": [
                {
                    "name": "",
                    "type": "bool",
                    "internalType": "bool"
                }
            ],
            "stateMutability": "nonpayable"
        },
        {
            "type": "function",
            "name": "deposit",
            "inputs": [],
            "outputs": [],
            "stateMutability": "payable"
        },
        {
            "type": "function",
            "name": "endpoint",
            "inputs": [],
            "outputs": [
                {
                    "name": "",
                    "type": "address",
                    "internalType": "contract ILayerZeroEndpointV2"
                }
            ],
            "stateMutability": "view"
        },
        {
            "type": "function",
            "name": "enforcedOptions",
            "inputs": [
                {
                    "name": "eid",
                    "type": "uint32",
                    "internalType": "uint32"
                },
                {
                    "name": "msgType",
                    "type": "uint16",
                    "internalType": "uint16"
                }
            ],
            "outputs": [
                {
                    "name": "enforcedOption",
                    "type": "bytes",
                    "internalType": "bytes"
                }
            ],
            "stateMutability": "view"
        },
        {
            "type": "function",
            "name": "increaseAllowance",
            "inputs": [
                {
                    "name": "spender",
                    "type": "address",
                    "internalType": "address"
                },
                {
                    "name": "addedValue",
                    "type": "uint256",
                    "internalType": "uint256"
                }
            ],
            "outputs": [
                {
                    "name": "",
                    "type": "bool",
                    "internalType": "bool"
                }
            ],
            "stateMutability": "nonpayable"
        },
        {
            "type": "function",
            "name": "isPeer",
            "inputs": [
                {
                    "name": "_eid",
                    "type": "uint32",
                    "internalType": "uint32"
                },
                {
                    "name": "_peer",
                    "type": "bytes32",
                    "internalType": "bytes32"
                }
            ],
            "outputs": [
                {
                    "name": "",
                    "type": "bool",
                    "internalType": "bool"
                }
            ],
            "stateMutability": "view"
        },
        {
            "type": "function",
            "name": "lzReceive",
            "inputs": [
                {
                    "name": "_origin",
                    "type": "tuple",
                    "internalType": "struct Origin",
                    "components": [
                        {
                            "name": "srcEid",
                            "type": "uint32",
                            "internalType": "uint32"
                        },
                        {
                            "name": "sender",
                            "type": "bytes32",
                            "internalType": "bytes32"
                        },
                        {
                            "name": "nonce",
                            "type": "uint64",
                            "internalType": "uint64"
                        }
                    ]
                },
                {
                    "name": "_guid",
                    "type": "bytes32",
                    "internalType": "bytes32"
                },
                {
                    "name": "_message",
                    "type": "bytes",
                    "internalType": "bytes"
                },
                {
                    "name": "_executor",
                    "type": "address",
                    "internalType": "address"
                },
                {
                    "name": "_extraData",
                    "type": "bytes",
                    "internalType": "bytes"
                }
            ],
            "outputs": [],
            "stateMutability": "payable"
        },
        {
            "type": "function",
            "name": "lzReceiveAndRevert",
            "inputs": [
                {
                    "name": "_packets",
                    "type": "tuple[]",
                    "internalType": "struct InboundPacket[]",
                    "components": [
                        {
                            "name": "origin",
                            "type": "tuple",
                            "internalType": "struct Origin",
                            "components": [
                                {
                                    "name": "srcEid",
                                    "type": "uint32",
                                    "internalType": "uint32"
                                },
                                {
                                    "name": "sender",
                                    "type": "bytes32",
                                    "internalType": "bytes32"
                                },
                                {
                                    "name": "nonce",
                                    "type": "uint64",
                                    "internalType": "uint64"
                                }
                            ]
                        },
                        {
                            "name": "dstEid",
                            "type": "uint32",
                            "internalType": "uint32"
                        },
                        {
                            "name": "receiver",
                            "type": "address",
                            "internalType": "address"
                        },
                        {
                            "name": "guid",
                            "type": "bytes32",
                            "internalType": "bytes32"
                        },
                        {
                            "name": "value",
                            "type": "uint256",
                            "internalType": "uint256"
                        },
                        {
                            "name": "executor",
                            "type": "address",
                            "internalType": "address"
                        },
                        {
                            "name": "message",
                            "type": "bytes",
                            "internalType": "bytes"
                        },
                        {
                            "name": "extraData",
                            "type": "bytes",
                            "internalType": "bytes"
                        }
                    ]
                }
            ],
            "outputs": [],
            "stateMutability": "payable"
        },
        {
            "type": "function",
            "name": "lzReceiveSimulate",
            "inputs": [
                {
                    "name": "_origin",
                    "type": "tuple",
                    "internalType": "struct Origin",
                    "components": [
                        {
                            "name": "srcEid",
                            "type": "uint32",
                            "internalType": "uint32"
                        },
                        {
                            "name": "sender",
                            "type": "bytes32",
                            "internalType": "bytes32"
                        },
                        {
                            "name": "nonce",
                            "type": "uint64",
                            "internalType": "uint64"
                        }
                    ]
                },
                {
                    "name": "_guid",
                    "type": "bytes32",
                    "internalType": "bytes32"
                },
                {
                    "name": "_message",
                    "type": "bytes",
                    "internalType": "bytes"
                },
                {
                    "name": "_executor",
                    "type": "address",
                    "internalType": "address"
                },
                {
                    "name": "_extraData",
                    "type": "bytes",
                    "internalType": "bytes"
                }
            ],
            "outputs": [],
            "stateMutability": "payable"
        },
        {
            "type": "function",
            "name": "msgInspector",
            "inputs": [],
            "outputs": [
                {
                    "name": "",
                    "type": "address",
                    "internalType": "address"
                }
            ],
            "stateMutability": "view"
        },
        {
            "type": "function",
            "name": "name",
            "inputs": [],
            "outputs": [
                {
                    "name": "",
                    "type": "string",
                    "internalType": "string"
                }
            ],
            "stateMutability": "view"
        },
        {
            "type": "function",
            "name": "nextNonce",
            "inputs": [
                {
                    "name": "",
                    "type": "uint32",
                    "internalType": "uint32"
                },
                {
                    "name": "",
                    "type": "bytes32",
                    "internalType": "bytes32"
                }
            ],
            "outputs": [
                {
                    "name": "nonce",
                    "type": "uint64",
                    "internalType": "uint64"
                }
            ],
            "stateMutability": "view"
        },
        {
            "type": "function",
            "name": "oApp",
            "inputs": [],
            "outputs": [
                {
                    "name": "",
                    "type": "address",
                    "internalType": "address"
                }
            ],
            "stateMutability": "view"
        },
        {
            "type": "function",
            "name": "oAppVersion",
            "inputs": [],
            "outputs": [
                {
                    "name": "senderVersion",
                    "type": "uint64",
                    "internalType": "uint64"
                },
                {
                    "name": "receiverVersion",
                    "type": "uint64",
                    "internalType": "uint64"
                }
            ],
            "stateMutability": "pure"
        },
        {
            "type": "function",
            "name": "oftVersion",
            "inputs": [],
            "outputs": [
                {
                    "name": "interfaceId",
                    "type": "bytes4",
                    "internalType": "bytes4"
                },
                {
                    "name": "version",
                    "type": "uint64",
                    "internalType": "uint64"
                }
            ],
            "stateMutability": "pure"
        },
        {
            "type": "function",
            "name": "owner",
            "inputs": [],
            "outputs": [
                {
                    "name": "",
                    "type": "address",
                    "internalType": "address"
                }
            ],
            "stateMutability": "view"
        },
        {
            "type": "function",
            "name": "peers",
            "inputs": [
                {
                    "name": "eid",
                    "type": "uint32",
                    "internalType": "uint32"
                }
            ],
            "outputs": [
                {
                    "name": "peer",
                    "type": "bytes32",
                    "internalType": "bytes32"
                }
            ],
            "stateMutability": "view"
        },
        {
            "type": "function",
            "name": "preCrime",
            "inputs": [],
            "outputs": [
                {
                    "name": "",
                    "type": "address",
                    "internalType": "address"
                }
            ],
            "stateMutability": "view"
        },
        {
            "type": "function",
            "name": "quoteOFT",
            "inputs": [
                {
                    "name": "_sendParam",
                    "type": "tuple",
                    "internalType": "struct SendParam",
                    "components": [
                        {
                            "name": "dstEid",
                            "type": "uint32",
                            "internalType": "uint32"
                        },
                        {
                            "name": "to",
                            "type": "bytes32",
                            "internalType": "bytes32"
                        },
                        {
                            "name": "amountLD",
                            "type": "uint256",
                            "internalType": "uint256"
                        },
                        {
                            "name": "minAmountLD",
                            "type": "uint256",
                            "internalType": "uint256"
                        },
                        {
                            "name": "extraOptions",
                            "type": "bytes",
                            "internalType": "bytes"
                        },
                        {
                            "name": "composeMsg",
                            "type": "bytes",
                            "internalType": "bytes"
                        },
                        {
                            "name": "oftCmd",
                            "type": "bytes",
                            "internalType": "bytes"
                        }
                    ]
                }
            ],
            "outputs": [
                {
                    "name": "oftLimit",
                    "type": "tuple",
                    "internalType": "struct OFTLimit",
                    "components": [
                        {
                            "name": "minAmountLD",
                            "type": "uint256",
                            "internalType": "uint256"
                        },
                        {
                            "name": "maxAmountLD",
                            "type": "uint256",
                            "internalType": "uint256"
                        }
                    ]
                },
                {
                    "name": "oftFeeDetails",
                    "type": "tuple[]",
                    "internalType": "struct OFTFeeDetail[]",
                    "components": [
                        {
                            "name": "feeAmountLD",
                            "type": "int256",
                            "internalType": "int256"
                        },
                        {
                            "name": "description",
                            "type": "string",
                            "internalType": "string"
                        }
                    ]
                },
                {
                    "name": "oftReceipt",
                    "type": "tuple",
                    "internalType": "struct OFTReceipt",
                    "components": [
                        {
                            "name": "amountSentLD",
                            "type": "uint256",
                            "internalType": "uint256"
                        },
                        {
                            "name": "amountReceivedLD",
                            "type": "uint256",
                            "internalType": "uint256"
                        }
                    ]
                }
            ],
            "stateMutability": "view"
        },
        {
            "type": "function",
            "name": "quoteSend",
            "inputs": [
                {
                    "name": "_sendParam",
                    "type": "tuple",
                    "internalType": "struct SendParam",
                    "components": [
                        {
                            "name": "dstEid",
                            "type": "uint32",
                            "internalType": "uint32"
                        },
                        {
                            "name": "to",
                            "type": "bytes32",
                            "internalType": "bytes32"
                        },
                        {
                            "name": "amountLD",
                            "type": "uint256",
                            "internalType": "uint256"
                        },
                        {
                            "name": "minAmountLD",
                            "type": "uint256",
                            "internalType": "uint256"
                        },
                        {
                            "name": "extraOptions",
                            "type": "bytes",
                            "internalType": "bytes"
                        },
                        {
                            "name": "composeMsg",
                            "type": "bytes",
                            "internalType": "bytes"
                        },
                        {
                            "name": "oftCmd",
                            "type": "bytes",
                            "internalType": "bytes"
                        }
                    ]
                },
                {
                    "name": "_payInLzToken",
                    "type": "bool",
                    "internalType": "bool"
                }
            ],
            "outputs": [
                {
                    "name": "msgFee",
                    "type": "tuple",
                    "internalType": "struct MessagingFee",
                    "components": [
                        {
                            "name": "nativeFee",
                            "type": "uint256",
                            "internalType": "uint256"
                        },
                        {
                            "name": "lzTokenFee",
                            "type": "uint256",
                            "internalType": "uint256"
                        }
                    ]
                }
            ],
            "stateMutability": "view"
        },
        {
            "type": "function",
            "name": "renounceOwnership",
            "inputs": [],
            "outputs": [],
            "stateMutability": "nonpayable"
        },
        {
            "type": "function",
            "name": "send",
            "inputs": [
                {
                    "name": "_sendParam",
                    "type": "tuple",
                    "internalType": "struct SendParam",
                    "components": [
                        {
                            "name": "dstEid",
                            "type": "uint32",
                            "internalType": "uint32"
                        },
                        {
                            "name": "to",
                            "type": "bytes32",
                            "internalType": "bytes32"
                        },
                        {
                            "name": "amountLD",
                            "type": "uint256",
                            "internalType": "uint256"
                        },
                        {
                            "name": "minAmountLD",
                            "type": "uint256",
                            "internalType": "uint256"
                        },
                        {
                            "name": "extraOptions",
                            "type": "bytes",
                            "internalType": "bytes"
                        },
                        {
                            "name": "composeMsg",
                            "type": "bytes",
                            "internalType": "bytes"
                        },
                        {
                            "name": "oftCmd",
                            "type": "bytes",
                            "internalType": "bytes"
                        }
                    ]
                },
                {
                    "name": "_fee",
                    "type": "tuple",
                    "internalType": "struct MessagingFee",
                    "components": [
                        {
                            "name": "nativeFee",
                            "type": "uint256",
                            "internalType": "uint256"
                        },
                        {
                            "name": "lzTokenFee",
                            "type": "uint256",
                            "internalType": "uint256"
                        }
                    ]
                },
                {
                    "name": "_refundAddress",
                    "type": "address",
                    "internalType": "address"
                }
            ],
            "outputs": [
                {
                    "name": "msgReceipt",
                    "type": "tuple",
                    "internalType": "struct MessagingReceipt",
                    "components": [
                        {
                            "name": "guid",
                            "type": "bytes32",
                            "internalType": "bytes32"
                        },
                        {
                            "name": "nonce",
                            "type": "uint64",
                            "internalType": "uint64"
                        },
                        {
                            "name": "fee",
                            "type": "tuple",
                            "internalType": "struct MessagingFee",
                            "components": [
                                {
                                    "name": "nativeFee",
                                    "type": "uint256",
                                    "internalType": "uint256"
                                },
                                {
                                    "name": "lzTokenFee",
                                    "type": "uint256",
                                    "internalType": "uint256"
                                }
                            ]
                        }
                    ]
                },
                {
                    "name": "oftReceipt",
                    "type": "tuple",
                    "internalType": "struct OFTReceipt",
                    "components": [
                        {
                            "name": "amountSentLD",
                            "type": "uint256",
                            "internalType": "uint256"
                        },
                        {
                            "name": "amountReceivedLD",
                            "type": "uint256",
                            "internalType": "uint256"
                        }
                    ]
                }
            ],
            "stateMutability": "payable"
        },
        {
            "type": "function",
            "name": "setDelegate",
            "inputs": [
                {
                    "name": "_delegate",
                    "type": "address",
                    "internalType": "address"
                }
            ],
            "outputs": [],
            "stateMutability": "nonpayable"
        },
        {
            "type": "function",
            "name": "setEnforcedOptions",
            "inputs": [
                {
                    "name": "_enforcedOptions",
                    "type": "tuple[]",
                    "internalType": "struct EnforcedOptionParam[]",
                    "components": [
                        {
                            "name": "eid",
                            "type": "uint32",
                            "internalType": "uint32"
                        },
                        {
                            "name": "msgType",
                            "type": "uint16",
                            "internalType": "uint16"
                        },
                        {
                            "name": "options",
                            "type": "bytes",
                            "internalType": "bytes"
                        }
                    ]
                }
            ],
            "outputs": [],
            "stateMutability": "nonpayable"
        },
        {
            "type": "function",
            "name": "setMsgInspector",
            "inputs": [
                {
                    "name": "_msgInspector",
                    "type": "address",
                    "internalType": "address"
                }
            ],
            "outputs": [],
            "stateMutability": "nonpayable"
        },
        {
            "type": "function",
            "name": "setPeer",
            "inputs": [
                {
                    "name": "_eid",
                    "type": "uint32",
                    "internalType": "uint32"
                },
                {
                    "name": "_peer",
                    "type": "bytes32",
                    "internalType": "bytes32"
                }
            ],
            "outputs": [],
            "stateMutability": "nonpayable"
        },
        {
            "type": "function",
            "name": "setPreCrime",
            "inputs": [
                {
                    "name": "_preCrime",
                    "type": "address",
                    "internalType": "address"
                }
            ],
            "outputs": [],
            "stateMutability": "nonpayable"
        },
        {
            "type": "function",
            "name": "sharedDecimals",
            "inputs": [],
            "outputs": [
                {
                    "name": "",
                    "type": "uint8",
                    "internalType": "uint8"
                }
            ],
            "stateMutability": "pure"
        },
        {
            "type": "function",
            "name": "symbol",
            "inputs": [],
            "outputs": [
                {
                    "name": "",
                    "type": "string",
                    "internalType": "string"
                }
            ],
            "stateMutability": "view"
        },
        {
            "type": "function",
            "name": "token",
            "inputs": [],
            "outputs": [
                {
                    "name": "",
                    "type": "address",
                    "internalType": "address"
                }
            ],
            "stateMutability": "view"
        },
        {
            "type": "function",
            "name": "totalSupply",
            "inputs": [],
            "outputs": [
                {
                    "name": "",
                    "type": "uint256",
                    "internalType": "uint256"
                }
            ],
            "stateMutability": "view"
        },
        {
            "type": "function",
            "name": "transfer",
            "inputs": [
                {
                    "name": "to",
                    "type": "address",
                    "internalType": "address"
                },
                {
                    "name": "amount",
                    "type": "uint256",
                    "internalType": "uint256"
                }
            ],
            "outputs": [
                {
                    "name": "",
                    "type": "bool",
                    "internalType": "bool"
                }
            ],
            "stateMutability": "nonpayable"
        },
        {
            "type": "function",
            "name": "transferFrom",
            "inputs": [
                {
                    "name": "from",
                    "type": "address",
                    "internalType": "address"
                },
                {
                    "name": "to",
                    "type": "address",
                    "internalType": "address"
                },
                {
                    "name": "amount",
                    "type": "uint256",
                    "internalType": "uint256"
                }
            ],
            "outputs": [
                {
                    "name": "",
                    "type": "bool",
                    "internalType": "bool"
                }
            ],
            "stateMutability": "nonpayable"
        },
        {
            "type": "function",
            "name": "transferOwnership",
            "inputs": [
                {
                    "name": "newOwner",
                    "type": "address",
                    "internalType": "address"
                }
            ],
            "outputs": [],
            "stateMutability": "nonpayable"
        },
        {
            "type": "function",
            "name": "withdraw",
            "inputs": [
                {
                    "name": "amount",
                    "type": "uint256",
                    "internalType": "uint256"
                }
            ],
            "outputs": [],
            "stateMutability": "nonpayable"
        },
        {
            "type": "event",
            "name": "Approval",
            "inputs": [
                {
                    "name": "owner",
                    "type": "address",
                    "indexed": true,
                    "internalType": "address"
                },
                {
                    "name": "spender",
                    "type": "address",
                    "indexed": true,
                    "internalType": "address"
                },
                {
                    "name": "value",
                    "type": "uint256",
                    "indexed": false,
                    "internalType": "uint256"
                }
            ],
            "anonymous": false
        },
        {
            "type": "event",
            "name": "Deposit",
            "inputs": [
                {
                    "name": "from",
                    "type": "address",
                    "indexed": true,
                    "internalType": "address"
                },
                {
                    "name": "amount",
                    "type": "uint256",
                    "indexed": false,
                    "internalType": "uint256"
                }
            ],
            "anonymous": false
        },
        {
            "type": "event",
            "name": "EnforcedOptionSet",
            "inputs": [
                {
                    "name": "_enforcedOptions",
                    "type": "tuple[]",
                    "indexed": false,
                    "internalType": "struct EnforcedOptionParam[]",
                    "components": [
                        {
                            "name": "eid",
                            "type": "uint32",
                            "internalType": "uint32"
                        },
                        {
                            "name": "msgType",
                            "type": "uint16",
                            "internalType": "uint16"
                        },
                        {
                            "name": "options",
                            "type": "bytes",
                            "internalType": "bytes"
                        }
                    ]
                }
            ],
            "anonymous": false
        },
        {
            "type": "event",
            "name": "MsgInspectorSet",
            "inputs": [
                {
                    "name": "inspector",
                    "type": "address",
                    "indexed": false,
                    "internalType": "address"
                }
            ],
            "anonymous": false
        },
        {
            "type": "event",
            "name": "OFTReceived",
            "inputs": [
                {
                    "name": "guid",
                    "type": "bytes32",
                    "indexed": true,
                    "internalType": "bytes32"
                },
                {
                    "name": "srcEid",
                    "type": "uint32",
                    "indexed": false,
                    "internalType": "uint32"
                },
                {
                    "name": "toAddress",
                    "type": "address",
                    "indexed": true,
                    "internalType": "address"
                },
                {
                    "name": "amountReceivedLD",
                    "type": "uint256",
                    "indexed": false,
                    "internalType": "uint256"
                }
            ],
            "anonymous": false
        },
        {
            "type": "event",
            "name": "OFTSent",
            "inputs": [
                {
                    "name": "guid",
                    "type": "bytes32",
                    "indexed": true,
                    "internalType": "bytes32"
                },
                {
                    "name": "dstEid",
                    "type": "uint32",
                    "indexed": false,
                    "internalType": "uint32"
                },
                {
                    "name": "fromAddress",
                    "type": "address",
                    "indexed": true,
                    "internalType": "address"
                },
                {
                    "name": "amountSentLD",
                    "type": "uint256",
                    "indexed": false,
                    "internalType": "uint256"
                },
                {
                    "name": "amountReceivedLD",
                    "type": "uint256",
                    "indexed": false,
                    "internalType": "uint256"
                }
            ],
            "anonymous": false
        },
        {
            "type": "event",
            "name": "OwnershipTransferred",
            "inputs": [
                {
                    "name": "previousOwner",
                    "type": "address",
                    "indexed": true,
                    "internalType": "address"
                },
                {
                    "name": "newOwner",
                    "type": "address",
                    "indexed": true,
                    "internalType": "address"
                }
            ],
            "anonymous": false
        },
        {
            "type": "event",
            "name": "PeerSet",
            "inputs": [
                {
                    "name": "eid",
                    "type": "uint32",
                    "indexed": false,
                    "internalType": "uint32"
                },
                {
                    "name": "peer",
                    "type": "bytes32",
                    "indexed": false,
                    "internalType": "bytes32"
                }
            ],
            "anonymous": false
        },
        {
            "type": "event",
            "name": "PreCrimeSet",
            "inputs": [
                {
                    "name": "preCrimeAddress",
                    "type": "address",
                    "indexed": false,
                    "internalType": "address"
                }
            ],
            "anonymous": false
        },
        {
            "type": "event",
            "name": "Transfer",
            "inputs": [
                {
                    "name": "from",
                    "type": "address",
                    "indexed": true,
                    "internalType": "address"
                },
                {
                    "name": "to",
                    "type": "address",
                    "indexed": true,
                    "internalType": "address"
                },
                {
                    "name": "value",
                    "type": "uint256",
                    "indexed": false,
                    "internalType": "uint256"
                }
            ],
            "anonymous": false
        },
        {
            "type": "event",
            "name": "Withdrawal",
            "inputs": [
                {
                    "name": "to",
                    "type": "address",
                    "indexed": true,
                    "internalType": "address"
                },
                {
                    "name": "amount",
                    "type": "uint256",
                    "indexed": false,
                    "internalType": "uint256"
                }
            ],
            "anonymous": false
        },
        {
            "type": "error",
            "name": "InvalidDelegate",
            "inputs": []
        },
        {
            "type": "error",
            "name": "InvalidEndpointCall",
            "inputs": []
        },
        {
            "type": "error",
            "name": "InvalidLocalDecimals",
            "inputs": []
        },
        {
            "type": "error",
            "name": "InvalidOptions",
            "inputs": [
                {
                    "name": "options",
                    "type": "bytes",
                    "internalType": "bytes"
                }
            ]
        },
        {
            "type": "error",
            "name": "LzTokenUnavailable",
            "inputs": []
        },
        {
            "type": "error",
            "name": "NoPeer",
            "inputs": [
                {
                    "name": "eid",
                    "type": "uint32",
                    "internalType": "uint32"
                }
            ]
        },
        {
            "type": "error",
            "name": "NotEnoughNative",
            "inputs": [
                {
                    "name": "msgValue",
                    "type": "uint256",
                    "internalType": "uint256"
                }
            ]
        },
        {
            "type": "error",
            "name": "OnlyEndpoint",
            "inputs": [
                {
                    "name": "addr",
                    "type": "address",
                    "internalType": "address"
                }
            ]
        },
        {
            "type": "error",
            "name": "OnlyPeer",
            "inputs": [
                {
                    "name": "eid",
                    "type": "uint32",
                    "internalType": "uint32"
                },
                {
                    "name": "sender",
                    "type": "bytes32",
                    "internalType": "bytes32"
                }
            ]
        },
        {
            "type": "error",
            "name": "OnlySelf",
            "inputs": []
        },
        {
            "type": "error",
            "name": "SimulationResult",
            "inputs": [
                {
                    "name": "result",
                    "type": "bytes",
                    "internalType": "bytes"
                }
            ]
        },
        {
            "type": "error",
            "name": "SlippageExceeded",
            "inputs": [
                {
                    "name": "amountLD",
                    "type": "uint256",
                    "internalType": "uint256"
                },
                {
                    "name": "minAmountLD",
                    "type": "uint256",
                    "internalType": "uint256"
                }
            ]
        }
    ],
    "bytecode": {
        "object": "0x60c06040523480156200001157600080fd5b5060405162003af338038062003af38339810160408190526200003491620002a1565b83838383838360128484818181816200004d3362000167565b6001600160a01b0380831660805281166200007b57604051632d618d8160e21b815260040160405180910390fd5b60805160405163ca5eb5e160e01b81526001600160a01b0383811660048301529091169063ca5eb5e190602401600060405180830381600087803b158015620000c357600080fd5b505af1158015620000d8573d6000803e3d6000fd5b5050505050505050620000f0620001b760201b60201c565b60ff168360ff16101562000117576040516301e9714b60e41b815260040160405180910390fd5b6200012460068462000346565b6200013190600a62000465565b60a052506008915062000147905083826200050e565b5060096200015682826200050e565b5050505050505050505050620005da565b600080546001600160a01b038381166001600160a01b0319831681178455604051919092169283917f8be0079c531659141344cd1fd0a4f28419497f9722a3daafe3b4186f6b6457e09190a35050565b600690565b634e487b7160e01b600052604160045260246000fd5b600082601f830112620001e457600080fd5b81516001600160401b0380821115620002015762000201620001bc565b604051601f8301601f19908116603f011681019082821181831017156200022c576200022c620001bc565b81604052838152602092508660208588010111156200024a57600080fd5b600091505b838210156200026e57858201830151818301840152908201906200024f565b6000602085830101528094505050505092915050565b80516001600160a01b03811681146200029c57600080fd5b919050565b60008060008060808587031215620002b857600080fd5b84516001600160401b0380821115620002d057600080fd5b620002de88838901620001d2565b95506020870151915080821115620002f557600080fd5b506200030487828801620001d2565b935050620003156040860162000284565b9150620003256060860162000284565b905092959194509250565b634e487b7160e01b600052601160045260246000fd5b60ff828116828216039081111562000362576200036262000330565b92915050565b600181815b80851115620003a95781600019048211156200038d576200038d62000330565b808516156200039b57918102915b93841c93908002906200036d565b509250929050565b600082620003c25750600162000362565b81620003d15750600062000362565b8160018114620003ea5760028114620003f55762000415565b600191505062000362565b60ff84111562000409576200040962000330565b50506001821b62000362565b5060208310610133831016604e8410600b84101617156200043a575081810a62000362565b62000446838362000368565b80600019048211156200045d576200045d62000330565b029392505050565b60006200047660ff841683620003b1565b9392505050565b600181811c908216806200049257607f821691505b602082108103620004b357634e487b7160e01b600052602260045260246000fd5b50919050565b601f82111562000509576000816000526020600020601f850160051c81016020861015620004e45750805b601f850160051c820191505b818110156200050557828155600101620004f0565b5050505b505050565b81516001600160401b038111156200052a576200052a620001bc565b62000542816200053b84546200047d565b84620004b9565b602080601f8311600181146200057a5760008415620005615750858301515b600019600386901b1c1916600185901b17855562000505565b600085815260208120601f198616915b82811015620005ab578886015182559484019460019091019084016200058a565b5085821015620005ca5787850151600019600388901b60f8161c191681555b5050505050600190811b01905550565b60805160a0516134ad620006466000396000818161067a015281816120d001528181612145015261220b01526000818161055901528181610a2c015281816113830152818161183a01528181611e4701528181611ff4015281816122d6015261238d01526134ad6000f3fe6080604052600436106102815760003560e01c80637d25a05e1161014f578063bb0b6a53116100c1578063d0e30db01161007a578063d0e30db0146107e4578063d4243885146107ec578063dd62ed3e1461080c578063f2fde38b1461082c578063fc0c546a146104dd578063ff7bd03d1461084c57600080fd5b8063bb0b6a5314610730578063bc70b3541461075d578063bd815db01461077d578063c7c7f5b314610790578063ca5eb5e1146107b1578063d045a0dc146107d157600080fd5b80639f68b964116101135780639f68b9641461069c578063a457c2d7146106b0578063a9059cbb146106d0578063b731ea0a146106f0578063b92d0eff146104dd578063b98bd0701461071057600080fd5b80637d25a05e146105e6578063857749b0146106215780638da5cb5b1461063557806395d89b4114610653578063963efcaa1461066857600080fd5b80632e1a7d4d116101f35780635535d461116101ac5780635535d461146104f05780635a0dfe4d146105105780635e280f11146105475780636fc1b31e1461057b57806370a082311461059b578063715018a6146105d157600080fd5b80632e1a7d4d1461042e578063313ce5671461044e5780633400288b1461047057806339509351146104905780633b6f743b146104b057806352ae2879146104dd57600080fd5b8063134d4f2511610245578063134d4f251461036a578063156a0d0f1461039257806317442b70146103b957806318160ddd146103da5780631f5e1334146103f957806323b872dd1461040e57600080fd5b806306fdde0314610295578063095ea7b3146102c05780630d35b415146102f0578063111ecdad1461031f57806313137d651461035757600080fd5b366102905761028e61086c565b005b600080fd5b3480156102a157600080fd5b506102aa6108ad565b6040516102b7919061266a565b60405180910390f35b3480156102cc57600080fd5b506102e06102db366004612692565b61093f565b60405190151581526020016102b7565b3480156102fc57600080fd5b5061031061030b3660046126d6565b610959565b6040516102b79392919061270a565b34801561032b57600080fd5b5060045461033f906001600160a01b031681565b6040516001600160a01b0390911681526020016102b7565b61028e6103653660046127fd565b610a2a565b34801561037657600080fd5b5061037f600281565b60405161ffff90911681526020016102b7565b34801561039e57600080fd5b506040805162b9270b60e21b815260016020820152016102b7565b3480156103c557600080fd5b506040805160018082526020820152016102b7565b3480156103e657600080fd5b506007545b6040519081526020016102b7565b34801561040557600080fd5b5061037f600181565b34801561041a57600080fd5b506102e061042936600461289c565b610aea565b34801561043a57600080fd5b5061028e6104493660046128dd565b610b10565b34801561045a57600080fd5b5060125b60405160ff90911681526020016102b7565b34801561047c57600080fd5b5061028e61048b36600461290f565b610b5c565b34801561049c57600080fd5b506102e06104ab366004612692565b610bba565b3480156104bc57600080fd5b506104d06104cb366004612939565b610bdc565b6040516102b7919061298a565b3480156104e957600080fd5b503061033f565b3480156104fc57600080fd5b506102aa61050b3660046129b3565b610c43565b34801561051c57600080fd5b506102e061052b36600461290f565b63ffffffff919091166000908152600160205260409020541490565b34801561055357600080fd5b5061033f7f000000000000000000000000000000000000000000000000000000000000000081565b34801561058757600080fd5b5061028e6105963660046129e6565b610ce8565b3480156105a757600080fd5b506103eb6105b63660046129e6565b6001600160a01b031660009081526005602052604090205490565b3480156105dd57600080fd5b5061028e610d45565b3480156105f257600080fd5b5061060961060136600461290f565b600092915050565b6040516001600160401b0390911681526020016102b7565b34801561062d57600080fd5b50600661045e565b34801561064157600080fd5b506000546001600160a01b031661033f565b34801561065f57600080fd5b506102aa610d59565b34801561067457600080fd5b506103eb7f000000000000000000000000000000000000000000000000000000000000000081565b3480156106a857600080fd5b5060006102e0565b3480156106bc57600080fd5b506102e06106cb366004612692565b610d68565b3480156106dc57600080fd5b506102e06106eb366004612692565b610dee565b3480156106fc57600080fd5b5060025461033f906001600160a01b031681565b34801561071c57600080fd5b5061028e61072b366004612a47565b610dfc565b34801561073c57600080fd5b506103eb61074b366004612a88565b60016020526000908152604090205481565b34801561076957600080fd5b506102aa610778366004612aa3565b610f5d565b61028e61078b366004612a47565b6110d8565b6107a361079e366004612b03565b611262565b6040516102b7929190612b70565b3480156107bd57600080fd5b5061028e6107cc3660046129e6565b61135c565b61028e6107df3660046127fd565b6113e2565b61028e61086c565b3480156107f857600080fd5b5061028e6108073660046129e6565b611411565b34801561081857600080fd5b506103eb610827366004612bc2565b611467565b34801561083857600080fd5b5061028e6108473660046129e6565b611492565b34801561085857600080fd5b506102e0610867366004612bf0565b611508565b610876333461153e565b60405134815233907fe1fffcc4923d04b559f4d29a8bfc6cda04eb5b0d3c460751c2402c5c5cc9109c9060200160405180910390a2565b6060600880546108bc90612c0c565b80601f01602080910402602001604051908101604052809291908181526020018280546108e890612c0c565b80156109355780601f1061090a57610100808354040283529160200191610935565b820191906000526020600020905b81548152906001019060200180831161091857829003601f168201915b5050505050905090565b60003361094d818585611600565b60019150505b92915050565b6040805180820190915260008082526020820152606061098c604051806040016040528060008152602001600081525090565b60408051808201825260008082526001600160401b036020808401829052845183815290810190945291955091826109e7565b6040805180820190915260008152606060208201528152602001906001900390816109bf5790505b509350600080610a0c604089013560608a0135610a0760208c018c612a88565b611725565b60408051808201909152918252602082015296989597505050505050565b7f00000000000000000000000000000000000000000000000000000000000000006001600160a01b03163314610a7a576040516391ac5e4f60e01b81523360048201526024015b60405180910390fd5b60208701803590610a9490610a8f908a612a88565b611769565b14610ad257610aa66020880188612a88565b60405163309afaf360e21b815263ffffffff909116600482015260208801356024820152604401610a71565b610ae1878787878787876117a5565b50505050505050565b600033610af885828561190c565b610b03858585611986565b60019150505b9392505050565b610b1a3382611b31565b60405181815233907f7fcf532c15f0a6db0bd6d0e038bea71d30d808c7d98cb3bf7268a95bf5081b659060200160405180910390a2610b593382611c62565b50565b610b64611cb3565b63ffffffff8216600081815260016020908152604091829020849055815192835282018390527f238399d427b947898edb290f5ff0f9109849b1c3ba196a42e35f00c50a54b98b91015b60405180910390a15050565b60003361094d818585610bcd8383611467565b610bd79190612c6c565b611600565b60408051808201909152600080825260208201526000610c0c60408501356060860135610a076020880188612a88565b915050600080610c1c8684611d0d565b9092509050610c39610c316020880188612a88565b838388611e31565b9695505050505050565b600360209081526000928352604080842090915290825290208054610c6790612c0c565b80601f0160208091040260200160405190810160405280929190818152602001828054610c9390612c0c565b8015610ce05780601f10610cb557610100808354040283529160200191610ce0565b820191906000526020600020905b815481529060010190602001808311610cc357829003601f168201915b505050505081565b610cf0611cb3565b600480546001600160a01b0319166001600160a01b0383169081179091556040519081527ff0be4f1e87349231d80c36b33f9e8639658eeaf474014dee15a3e6a4d4414197906020015b60405180910390a150565b610d4d611cb3565b610d576000611f12565b565b6060600980546108bc90612c0c565b60003381610d768286611467565b905083811015610dd65760405162461bcd60e51b815260206004820152602560248201527f45524332303a2064656372656173656420616c6c6f77616e63652062656c6f77604482015264207a65726f60d81b6064820152608401610a71565b610de38286868403611600565b506001949350505050565b60003361094d818585611986565b610e04611cb3565b60005b81811015610f2b57610e49838383818110610e2457610e24612c7f565b9050602002810190610e369190612c95565b610e44906040810190612cb5565b611f62565b828282818110610e5b57610e5b612c7f565b9050602002810190610e6d9190612c95565b610e7b906040810190612cb5565b60036000868686818110610e9157610e91612c7f565b9050602002810190610ea39190612c95565b610eb1906020810190612a88565b63ffffffff1663ffffffff1681526020019081526020016000206000868686818110610edf57610edf612c7f565b9050602002810190610ef19190612c95565b610f02906040810190602001612cfb565b61ffff168152602081019190915260400160002091610f22919083612d66565b50600101610e07565b507fbe4864a8e820971c0247f5992e2da559595f7bf076a21cb5928d443d2a13b6748282604051610bae929190612e4e565b63ffffffff8416600090815260036020908152604080832061ffff87168452909152812080546060929190610f9190612c0c565b80601f0160208091040260200160405190810160405280929190818152602001828054610fbd90612c0c565b801561100a5780601f10610fdf5761010080835404028352916020019161100a565b820191906000526020600020905b815481529060010190602001808311610fed57829003601f168201915b50505050509050805160000361105a5783838080601f0160208091040260200160405190810160405280939291908181526020018383808284376000920191909152509294506110d09350505050565b600083900361106a5790506110d0565b600283106110b35761107c8484611f62565b8061108a8460028188612f32565b60405160200161109c93929190612f5c565b6040516020818303038152906040529150506110d0565b8383604051639a6d49cd60e01b8152600401610a71929190612f84565b949350505050565b60005b818110156111e157368383838181106110f6576110f6612c7f565b90506020028101906111089190612f98565b905061113b61111a6020830183612a88565b602083013563ffffffff919091166000908152600160205260409020541490565b61114557506111d9565b3063d045a0dc60c08301358360a0810135611164610100830183612cb5565b611175610100890160e08a016129e6565b6111836101208a018a612cb5565b6040518963ffffffff1660e01b81526004016111a59796959493929190612fc4565b6000604051808303818588803b1580156111be57600080fd5b505af11580156111d2573d6000803e3d6000fd5b5050505050505b6001016110db565b50336001600160a01b0316638e9e70996040518163ffffffff1660e01b8152600401600060405180830381865afa158015611220573d6000803e3d6000fd5b505050506040513d6000823e601f3d908101601f191682016040526112489190810190613072565b604051638351eea760e01b8152600401610a71919061266a565b61126a6125d3565b60408051808201909152600080825260208201526000806112a06040880135606089013561129b60208b018b612a88565b611fa4565b915091506000806112b18984611d0d565b90925090506112dd6112c660208b018b612a88565b83836112d7368d90038d018d613113565b8b611fc1565b60408051808201909152858152602080820186905282519298509096503391907f85496b760a4b7f8d66384b9df21b381f5d1b1e79f229a47aaf4c232edc2fe59a9061132b908d018d612a88565b6040805163ffffffff909216825260208201899052810187905260600160405180910390a350505050935093915050565b611364611cb3565b60405163ca5eb5e160e01b81526001600160a01b0382811660048301527f0000000000000000000000000000000000000000000000000000000000000000169063ca5eb5e190602401600060405180830381600087803b1580156113c757600080fd5b505af11580156113db573d6000803e3d6000fd5b5050505050565b3330146114025760405163029a949d60e31b815260040160405180910390fd5b610ae187878787878787610ad2565b611419611cb3565b600280546001600160a01b0319166001600160a01b0383169081179091556040519081527fd48d879cef83a1c0bdda516f27b13ddb1b3f8bbac1c9e1511bb2a659c242776090602001610d3a565b6001600160a01b03918216600090815260066020908152604080832093909416825291909152205490565b61149a611cb3565b6001600160a01b0381166114ff5760405162461bcd60e51b815260206004820152602660248201527f4f776e61626c653a206e6577206f776e657220697320746865207a65726f206160448201526564647265737360d01b6064820152608401610a71565b610b5981611f12565b60006020820180359060019083906115209086612a88565b63ffffffff1681526020810191909152604001600020541492915050565b6001600160a01b0382166115945760405162461bcd60e51b815260206004820152601f60248201527f45524332303a206d696e7420746f20746865207a65726f2061646472657373006044820152606401610a71565b80600760008282546115a69190612c6c565b90915550506001600160a01b0382166000818152600560209081526040808320805486019055518481527fddf252ad1be2c89b69c2b068fc378daa952ba7f163c4a11628f55a4df523b3ef910160405180910390a35b5050565b6001600160a01b0383166116625760405162461bcd60e51b8152602060048201526024808201527f45524332303a20617070726f76652066726f6d20746865207a65726f206164646044820152637265737360e01b6064820152608401610a71565b6001600160a01b0382166116c35760405162461bcd60e51b815260206004820152602260248201527f45524332303a20617070726f766520746f20746865207a65726f206164647265604482015261737360f01b6064820152608401610a71565b6001600160a01b0383811660008181526006602090815260408083209487168084529482529182902085905590518481527f8c5be1e5ebec7d5bd14f71427d1e84f3dd0314c0f7b2291e5b200ac8c7c3b92591015b60405180910390a3505050565b600080611731856120cc565b915081905083811015611761576040516371c4efed60e01b81526004810182905260248101859052604401610a71565b935093915050565b63ffffffff8116600090815260016020526040812054806109535760405163f6ff4fb760e01b815263ffffffff84166004820152602401610a71565b60006117b76117b48787612103565b90565b905060006117e3826117d16117cc8a8a61211b565b61213e565b6117de60208d018d612a88565b612173565b905060288611156118aa57600061182061180360608c0160408d01613145565b61181060208d018d612a88565b8461181b8c8c612187565b6121d2565b604051633e5ac80960e11b81529091506001600160a01b037f00000000000000000000000000000000000000000000000000000000000000001690637cb59012906118769086908d906000908790600401613162565b600060405180830381600087803b15801561189057600080fd5b505af11580156118a4573d6000803e3d6000fd5b50505050505b6001600160a01b038216887fefed6d3500546b29533b128a29e3a94d70788727f0507505ac12eaf2e578fd9c6118e360208d018d612a88565b6040805163ffffffff9092168252602082018690520160405180910390a3505050505050505050565b60006119188484611467565b9050600019811461198057818110156119735760405162461bcd60e51b815260206004820152601d60248201527f45524332303a20696e73756666696369656e7420616c6c6f77616e63650000006044820152606401610a71565b6119808484848403611600565b50505050565b6001600160a01b0383166119ea5760405162461bcd60e51b815260206004820152602560248201527f45524332303a207472616e736665722066726f6d20746865207a65726f206164604482015264647265737360d81b6064820152608401610a71565b6001600160a01b038216611a4c5760405162461bcd60e51b815260206004820152602360248201527f45524332303a207472616e7366657220746f20746865207a65726f206164647260448201526265737360e81b6064820152608401610a71565b6001600160a01b03831660009081526005602052604090205481811015611ac45760405162461bcd60e51b815260206004820152602660248201527f45524332303a207472616e7366657220616d6f756e7420657863656564732062604482015265616c616e636560d01b6064820152608401610a71565b6001600160a01b0380851660008181526005602052604080822086860390559286168082529083902080548601905591517fddf252ad1be2c89b69c2b068fc378daa952ba7f163c4a11628f55a4df523b3ef90611b249086815260200190565b60405180910390a3611980565b6001600160a01b038216611b915760405162461bcd60e51b815260206004820152602160248201527f45524332303a206275726e2066726f6d20746865207a65726f206164647265736044820152607360f81b6064820152608401610a71565b6001600160a01b03821660009081526005602052604090205481811015611c055760405162461bcd60e51b815260206004820152602260248201527f45524332303a206275726e20616d6f756e7420657863656564732062616c616e604482015261636560f01b6064820152608401610a71565b6001600160a01b03831660008181526005602090815260408083208686039055600780548790039055518581529192917fddf252ad1be2c89b69c2b068fc378daa952ba7f163c4a11628f55a4df523b3ef9101611718565b505050565b600080600080600085875af1905080611c5d5760405162461bcd60e51b815260206004820152601360248201527211551217d514905394d1915497d19052531151606a1b6044820152606401610a71565b6000546001600160a01b03163314610d575760405162461bcd60e51b815260206004820181905260248201527f4f776e61626c653a2063616c6c6572206973206e6f7420746865206f776e65726044820152606401610a71565b6060806000611d6a8560200135611d2386612204565b611d3060a0890189612cb5565b8080601f01602080910402602001604051908101604052809392919081815260200183838082843760009201919091525061223092505050565b9093509050600081611d7d576001611d80565b60025b9050611da0611d926020880188612a88565b8261077860808a018a612cb5565b6004549093506001600160a01b031615611e28576004805460405163043a78eb60e01b81526001600160a01b039091169163043a78eb91611de5918891889101613193565b602060405180830381865afa158015611e02573d6000803e3d6000fd5b505050506040513d601f19601f82011682018060405250810190611e2691906131b8565b505b50509250929050565b60408051808201909152600080825260208201527f00000000000000000000000000000000000000000000000000000000000000006001600160a01b031663ddc28c586040518060a001604052808863ffffffff168152602001611e9489611769565b8152602001878152602001868152602001851515815250306040518363ffffffff1660e01b8152600401611ec99291906131d5565b6040805180830381865afa158015611ee5573d6000803e3d6000fd5b505050506040513d601f19601f82011682018060405250810190611f09919061327e565b95945050505050565b600080546001600160a01b038381166001600160a01b0319831681178455604051919092169283917f8be0079c531659141344cd1fd0a4f28419497f9722a3daafe3b4186f6b6457e09190a35050565b6000611f716002828486612f32565b611f7a9161329a565b60f01c905060038114611c5d578282604051639a6d49cd60e01b8152600401610a71929190612f84565b600080611fb2858585611725565b90925090506117613383611b31565b611fc96125d3565b6000611fd884600001516122aa565b602085015190915015611ff257611ff284602001516122d2565b7f00000000000000000000000000000000000000000000000000000000000000006001600160a01b0316632637a450826040518060a001604052808b63ffffffff1681526020016120428c611769565b81526020018a815260200189815260200160008960200151111515815250866040518463ffffffff1660e01b815260040161207e9291906131d5565b60806040518083038185885af115801561209c573d6000803e3d6000fd5b50505050506040513d601f19601f820116820180604052508101906120c191906132ca565b979650505050505050565b60007f00000000000000000000000000000000000000000000000000000000000000006120f98184613331565b6109539190613353565b60006121126020828486612f32565b610b099161336a565b600061212b602860208486612f32565b61213491613388565b60c01c9392505050565b60006109537f00000000000000000000000000000000000000000000000000000000000000006001600160401b038416613353565b600061217f848461153e565b509092915050565b60606121968260288186612f32565b8080601f016020809104026020016040519081016040528093929190818152602001838380828437600092019190915250929695505050505050565b6060848484846040516020016121eb94939291906133b6565b6040516020818303038152906040529050949350505050565b60006109537f000000000000000000000000000000000000000000000000000000000000000083613331565b805160609015158061227957848460405160200161226592919091825260c01b6001600160c01b031916602082015260280190565b6040516020818303038152906040526122a0565b848433856040516020016122909493929190613405565b6040516020818303038152906040525b9150935093915050565b60008134146122ce576040516304fb820960e51b8152346004820152602401610a71565b5090565b60007f00000000000000000000000000000000000000000000000000000000000000006001600160a01b031663e4fe1d946040518163ffffffff1660e01b8152600401602060405180830381865afa158015612332573d6000803e3d6000fd5b505050506040513d601f19601f820116820180604052508101906123569190613448565b90506001600160a01b03811661237f576040516329b99a9560e11b815260040160405180910390fd5b6040805133602482018190527f00000000000000000000000000000000000000000000000000000000000000006001600160a01b03818116604485015260648085018890528551808603909101815260849094018552602080850180516001600160e01b03166323b872dd60e01b17905285518087019096528086527f5361666545524332303a206c6f772d6c6576656c2063616c6c206661696c6564908601526115fc9490861693879161198091869160009061244090849084906124c0565b905080516000148061246157508080602001905181019061246191906131b8565b611c5d5760405162461bcd60e51b815260206004820152602a60248201527f5361666545524332303a204552433230206f7065726174696f6e20646964206e6044820152691bdd081cdd58d8d9595960b21b6064820152608401610a71565b60606110d0848460008585600080866001600160a01b031685876040516124e79190613465565b60006040518083038185875af1925050503d8060008114612524576040519150601f19603f3d011682016040523d82523d6000602084013e612529565b606091505b50915091506120c187838387606083156125a457825160000361259d576001600160a01b0385163b61259d5760405162461bcd60e51b815260206004820152601d60248201527f416464726573733a2063616c6c20746f206e6f6e2d636f6e74726163740000006044820152606401610a71565b50816110d0565b6110d083838151156125b95781518083602001fd5b8060405162461bcd60e51b8152600401610a71919061266a565b60405180606001604052806000801916815260200160006001600160401b03168152602001612615604051806040016040528060008152602001600081525090565b905290565b60005b8381101561263557818101518382015260200161261d565b50506000910152565b6000815180845261265681602086016020860161261a565b601f01601f19169290920160200192915050565b602081526000610b09602083018461263e565b6001600160a01b0381168114610b5957600080fd5b600080604083850312156126a557600080fd5b82356126b08161267d565b946020939093013593505050565b600060e082840312156126d057600080fd5b50919050565b6000602082840312156126e857600080fd5b81356001600160401b038111156126fe57600080fd5b6110d0848285016126be565b8351815260208085015190820152600060a08201604060a0604085015281865180845260c08601915060c08160051b8701019350602080890160005b838110156127855788870360bf190185528151805188528301518388018790526127728789018261263e565b9750509382019390820190600101612746565b505087516060880152505050602085015160808501525090506110d0565b6000606082840312156126d057600080fd5b60008083601f8401126127c757600080fd5b5081356001600160401b038111156127de57600080fd5b6020830191508360208285010111156127f657600080fd5b9250929050565b600080600080600080600060e0888a03121561281857600080fd5b61282289896127a3565b96506060880135955060808801356001600160401b038082111561284557600080fd5b6128518b838c016127b5565b909750955060a08a013591506128668261267d565b90935060c0890135908082111561287c57600080fd5b506128898a828b016127b5565b989b979a50959850939692959293505050565b6000806000606084860312156128b157600080fd5b83356128bc8161267d565b925060208401356128cc8161267d565b929592945050506040919091013590565b6000602082840312156128ef57600080fd5b5035919050565b803563ffffffff8116811461290a57600080fd5b919050565b6000806040838503121561292257600080fd5b6126b0836128f6565b8015158114610b5957600080fd5b6000806040838503121561294c57600080fd5b82356001600160401b0381111561296257600080fd5b61296e858286016126be565b925050602083013561297f8161292b565b809150509250929050565b815181526020808301519082015260408101610953565b803561ffff8116811461290a57600080fd5b600080604083850312156129c657600080fd5b6129cf836128f6565b91506129dd602084016129a1565b90509250929050565b6000602082840312156129f857600080fd5b8135610b098161267d565b60008083601f840112612a1557600080fd5b5081356001600160401b03811115612a2c57600080fd5b6020830191508360208260051b85010111156127f657600080fd5b60008060208385031215612a5a57600080fd5b82356001600160401b03811115612a7057600080fd5b612a7c85828601612a03565b90969095509350505050565b600060208284031215612a9a57600080fd5b610b09826128f6565b60008060008060608587031215612ab957600080fd5b612ac2856128f6565b9350612ad0602086016129a1565b925060408501356001600160401b03811115612aeb57600080fd5b612af7878288016127b5565b95989497509550505050565b60008060008385036080811215612b1957600080fd5b84356001600160401b03811115612b2f57600080fd5b612b3b878288016126be565b9450506040601f1982011215612b5057600080fd5b506020840191506060840135612b658161267d565b809150509250925092565b600060c082019050835182526001600160401b0360208501511660208301526040840151612bab604084018280518252602090810151910152565b5082516080830152602083015160a0830152610b09565b60008060408385031215612bd557600080fd5b8235612be08161267d565b9150602083013561297f8161267d565b600060608284031215612c0257600080fd5b610b0983836127a3565b600181811c90821680612c2057607f821691505b6020821081036126d057634e487b7160e01b600052602260045260246000fd5b634e487b7160e01b600052604160045260246000fd5b634e487b7160e01b600052601160045260246000fd5b8082018082111561095357610953612c56565b634e487b7160e01b600052603260045260246000fd5b60008235605e19833603018112612cab57600080fd5b9190910192915050565b6000808335601e19843603018112612ccc57600080fd5b8301803591506001600160401b03821115612ce657600080fd5b6020019150368190038213156127f657600080fd5b600060208284031215612d0d57600080fd5b610b09826129a1565b601f821115611c5d576000816000526020600020601f850160051c81016020861015612d3f5750805b601f850160051c820191505b81811015612d5e57828155600101612d4b565b505050505050565b6001600160401b03831115612d7d57612d7d612c40565b612d9183612d8b8354612c0c565b83612d16565b6000601f841160018114612dc55760008515612dad5750838201355b600019600387901b1c1916600186901b1783556113db565b600083815260209020601f19861690835b82811015612df65786850135825560209485019460019092019101612dd6565b5086821015612e135760001960f88860031b161c19848701351681555b505060018560011b0183555050505050565b81835281816020850137506000828201602090810191909152601f909101601f19169091010190565b60208082528181018390526000906040808401600586901b8501820187855b88811015612f2457878303603f190184528135368b9003605e19018112612e9357600080fd5b8a01606063ffffffff612ea5836128f6565b16855261ffff612eb68984016129a1565b168886015286820135601e19833603018112612ed157600080fd5b9091018781019190356001600160401b03811115612eee57600080fd5b803603831315612efd57600080fd5b8188870152612f0f8287018285612e25565b96890196955050509186019150600101612e6d565b509098975050505050505050565b60008085851115612f4257600080fd5b83861115612f4f57600080fd5b5050820193919092039150565b60008451612f6e81846020890161261a565b8201838582376000930192835250909392505050565b6020815260006110d0602083018486612e25565b6000823561013e19833603018112612cab57600080fd5b6001600160401b0381168114610b5957600080fd5b63ffffffff612fd2896128f6565b1681526020880135602082015260006040890135612fef81612faf565b6001600160401b03811660408401525087606083015260e0608083015261301a60e083018789612e25565b6001600160a01b03861660a084015282810360c084015261303c818587612e25565b9a9950505050505050505050565b604080519081016001600160401b038111828210171561306c5761306c612c40565b60405290565b60006020828403121561308457600080fd5b81516001600160401b038082111561309b57600080fd5b818401915084601f8301126130af57600080fd5b8151818111156130c1576130c1612c40565b604051601f8201601f19908116603f011681019083821181831017156130e9576130e9612c40565b8160405282815287602084870101111561310257600080fd5b6120c183602083016020880161261a565b60006040828403121561312557600080fd5b61312d61304a565b82358152602083013560208201528091505092915050565b60006020828403121561315757600080fd5b8135610b0981612faf565b60018060a01b038516815283602082015261ffff83166040820152608060608201526000610c39608083018461263e565b6040815260006131a6604083018561263e565b8281036020840152611f09818561263e565b6000602082840312156131ca57600080fd5b8151610b098161292b565b6040815263ffffffff8351166040820152602083015160608201526000604084015160a0608084015261320b60e084018261263e565b90506060850151603f198483030160a0850152613228828261263e565b60809690960151151560c08501525050506001600160a01b039190911660209091015290565b60006040828403121561326057600080fd5b61326861304a565b9050815181526020820151602082015292915050565b60006040828403121561329057600080fd5b610b09838361324e565b6001600160f01b031981358181169160028510156132c25780818660020360031b1b83161692505b505092915050565b6000608082840312156132dc57600080fd5b604051606081018181106001600160401b03821117156132fe576132fe612c40565b60405282518152602083015161331381612faf565b6020820152613325846040850161324e565b60408201529392505050565b60008261334e57634e487b7160e01b600052601260045260246000fd5b500490565b808202811582820484141761095357610953612c56565b8035602083101561095357600019602084900360031b1b1692915050565b6001600160c01b031981358181169160088510156132c25760089490940360031b84901b1690921692915050565b6001600160401b0360c01b8560c01b16815263ffffffff60e01b8460e01b16600882015282600c820152600082516133f581602c85016020870161261a565b91909101602c0195945050505050565b8481526001600160401b0360c01b8460c01b1660208201528260288201526000825161343881604885016020870161261a565b9190910160480195945050505050565b60006020828403121561345a57600080fd5b8151610b098161267d565b60008251612cab81846020870161261a56fea2646970667358221220f8dfec50f8fef137c4e5d920256b570b45a8d176ff312cddb3db71cbc70a637764736f6c63430008180033",
        "linkReferences": {}
    },
    "methodIdentifiers": {
        "SEND()": "1f5e1334",
        "SEND_AND_CALL()": "134d4f25",
        "allowInitializePath((uint32,bytes32,uint64))": "ff7bd03d",
        "allowance(address,address)": "dd62ed3e",
        "approvalRequired()": "9f68b964",
        "approve(address,uint256)": "095ea7b3",
        "balanceOf(address)": "70a08231",
        "combineOptions(uint32,uint16,bytes)": "bc70b354",
        "composeMsgSender()": "b92d0eff",
        "decimalConversionRate()": "963efcaa",
        "decimals()": "313ce567",
        "decreaseAllowance(address,uint256)": "a457c2d7",
        "deposit()": "d0e30db0",
        "endpoint()": "5e280f11",
        "enforcedOptions(uint32,uint16)": "5535d461",
        "increaseAllowance(address,uint256)": "39509351",
        "isPeer(uint32,bytes32)": "5a0dfe4d",
        "lzReceive((uint32,bytes32,uint64),bytes32,bytes,address,bytes)": "13137d65",
        "lzReceiveAndRevert(((uint32,bytes32,uint64),uint32,address,bytes32,uint256,address,bytes,bytes)[])": "bd815db0",
        "lzReceiveSimulate((uint32,bytes32,uint64),bytes32,bytes,address,bytes)": "d045a0dc",
        "msgInspector()": "111ecdad",
        "name()": "06fdde03",
        "nextNonce(uint32,bytes32)": "7d25a05e",
        "oApp()": "52ae2879",
        "oAppVersion()": "17442b70",
        "oftVersion()": "156a0d0f",
        "owner()": "8da5cb5b",
        "peers(uint32)": "bb0b6a53",
        "preCrime()": "b731ea0a",
        "quoteOFT((uint32,bytes32,uint256,uint256,bytes,bytes,bytes))": "0d35b415",
        "quoteSend((uint32,bytes32,uint256,uint256,bytes,bytes,bytes),bool)": "3b6f743b",
        "renounceOwnership()": "715018a6",
        "send((uint32,bytes32,uint256,uint256,bytes,bytes,bytes),(uint256,uint256),address)": "c7c7f5b3",
        "setDelegate(address)": "ca5eb5e1",
        "setEnforcedOptions((uint32,uint16,bytes)[])": "b98bd070",
        "setMsgInspector(address)": "6fc1b31e",
        "setPeer(uint32,bytes32)": "3400288b",
        "setPreCrime(address)": "d4243885",
        "sharedDecimals()": "857749b0",
        "symbol()": "95d89b41",
        "token()": "fc0c546a",
        "totalSupply()": "18160ddd",
        "transfer(address,uint256)": "a9059cbb",
        "transferFrom(address,address,uint256)": "23b872dd",
        "transferOwnership(address)": "f2fde38b",
        "withdraw(uint256)": "2e1a7d4d"
    },
    "id": 162
}